:020000040000fa
:080000000002040000000000f2
:020000040000fa
:04000800f2030000ff
:020000040000fa
:04000c00f2030000fb
:020000040000fa
:04001000f2030000f7
:020000040000fa
:04001400f2030000f3
:020000040000fa
:04001800f2030000ef
:020000040000fa
:04001c00f2030000eb
:020000040000fa
:04002000f2030000e7
:020000040000fa
:04002400f2030000e3
:020000040000fa
:04002800f2030000df
:020000040000fa
:04002c00f2030000db
:020000040000fa
:04003000f2030000d7
:020000040000fa
:0400340002030000c3
:020000040000fa
:04003800f2030000cf
:020000040000fa
:04003c00f2030000cb
:020000040000fa
:04004000f2030000c7
:020000040000fa
:04004400f2030000c3
:020000040000fa
:04004800fa020000b8
:020000040000fa
:04004c00f2030000bb
:020000040000fa
:04005000f2030000b7
:020000040000fa
:04005400ae030000f7
:020000040000fa
:04005800840300001d
:020000040000fa
:04005c004e0300004f
:020000040000fa
:04006000f2030000a7
:020000040000fa
:04006400f2030000a3
:020000040000fa
:04006800f20300009f
:020000040000fa
:04006c00f20300009b
:020000040000fa
:04007000f203000097
:020000040000fa
:04007400f203000093
:020000040000fa
:04007800f20300008f
:020000040000fa
:04007c00f20300008b
:020000040000fa
:04008000f203000087
:020000040000fa
:04008400f203000083
:020000040000fa
:04008800f20300007f
:020000040000fa
:04008c00f20300007b
:020000040000fa
:04009000f203000077
:020000040000fa
:040094002403000041
:020000040000fa
:04009800f20300006f
:020000040000fa
:04009c00f20300006b
:020000040000fa
:0400a000f203000067
:020000040000fa
:0400a400f203000063
:020000040000fa
:0400a800f20300005f
:020000040000fa
:0400ac00f20300005b
:020000040000fa
:0400b000f203000057
:020000040000fa
:0400b400f203000053
:020000040000fa
:0400b800f20300004f
:020000040000fa
:0400bc00f20300004b
:020000040000fa
:0400c000f203000047
:020000040000fa
:0400c400f203000043
:020000040000fa
:0400c800f20300003f
:020000040000fa
:0400cc00f20300003b
:020000040000fa
:0400d000f203000037
:020000040000fa
:0400d400f203000033
:020000040000fa
:0400d800f20300002f
:020000040000fa
:0400dc00f20300002b
:020000040000fa
:0400e000f203000027
:020000040000fa
:0400e400f203000023
:020000040000fa
:0400e800f20300001f
:020000040000fa
:0400ec00f20300001b
:020000040000fa
:0400f000f203000017
:020000040000fa
:0400f400f203000013
:020000040000fa
:0400f800f20300000f
:020000040000fa
:0400fc00f20300000b
:020000040000fa
:04010000f203000006
:020000040000fa
:04010400f203000002
:020000040000fa
:04010800f2030000fe
:020000040000fa
:04010c00f2030000fa
:020000040000fa
:04011000f2030000f6
:020000040000fa
:04011400f2030000f2
:020000040000fa
:04011800f2030000ee
:020000040000fa
:04011c00f2030000ea
:020000040000fa
:04012000f2030000e6
:020000040000fa
:04012400f2030000e2
:020000040000fa
:04012800f2030000de
:020000040000fa
:04012c00f2030000da
:020000040000fa
:04013000f2030000d6
:020000040000fa
:04013400f2030000d2
:020000040000fa
:04013800f2030000ce
:020000040000fa
:04013c00f2030000ca
:020000040000fa
:04014000f2030000c6
:020000040000fa
:04014400f2030000c2
:020000040000fa
:04014800f2030000be
:020000040000fa
:04014c00f2030000ba
:020000040000fa
:04015000f2030000b6
:020000040000fa
:04015400f2030000b2
:020000040000fa
:04015800f2030000ae
:020000040000fa
:04015c00f2030000aa
:020000040000fa
:04016000f2030000a6
:020000040000fa
:04016400f2030000a2
:020000040000fa
:04016800f20300009e
:020000040000fa
:04016c00f20300009a
:020000040000fa
:04017000f203000096
:020000040000fa
:04017400f203000092
:020000040000fa
:04017800f20300008e
:020000040000fa
:04017c00f20300008a
:020000040000fa
:04018000f203000086
:020000040000fa
:04018400f203000082
:020000040000fa
:04018800f20300007e
:020000040000fa
:04018c00f20300007a
:020000040000fa
:04019000f203000076
:020000040000fa
:04019400f203000072
:020000040000fa
:04019800f20300006e
:020000040000fa
:04019c00f20300006a
:020000040000fa
:0401a000f203000066
:020000040000fa
:0401a400f203000062
:020000040000fa
:0401a800f20300005e
:020000040000fa
:0401ac00f20300005a
:020000040000fa
:0401b000f203000056
:020000040000fa
:0401b400f203000052
:020000040000fa
:0401b800f20300004e
:020000040000fa
:0401bc00f20300004a
:020000040000fa
:0401c000f203000046
:020000040000fa
:0401c400f203000042
:020000040000fa
:0401c800f20300003e
:020000040000fa
:0401cc00f20300003a
:020000040000fa
:0401d000f203000036
:020000040000fa
:0401d400f203000032
:020000040000fa
:0401d800f20300002e
:020000040000fa
:0401dc00f20300002a
:020000040000fa
:0401e000f203000026
:020000040000fa
:0401e400f203000022
:020000040000fa
:0401e800f20300001e
:020000040000fa
:0401ec00f20300001a
:020000040000fa
:0401f000f203000016
:020000040000fa
:0401f400f203000012
:020000040000fa
:0401f800f20300000e
:020000040000fa
:0401fc00f20300000a
:020000040000fa
:04020000f203000005
:020000040000fa
:04020400f203000001
:020000040000fa
:04020800f2030000fd
:020000040000fa
:04020c00f2030000f9
:020000040000fa
:04021000f2030000f5
:020000040000fa
:04021400f2030000f1
:020000040000fa
:04021800f2030000ed
:020000040000fa
:04021c00f2030000e9
:020000040000fa
:04022000f2030000e5
:020000040000fa
:04022400f2030000e1
:020000040000fa
:04022800f2030000dd
:020000040000fa
:04022c00f2030000d9
:020000040000fa
:04023000f2030000d5
:020000040000fa
:04023400f2030000d1
:020000040000fa
:04023800f2030000cd
:020000040000fa
:04023c00f2030000c9
:020000040000fa
:04024000f2030000c5
:020000040000fa
:04024400f2030000c1
:020000040000fa
:04024800f2030000bd
:020000040000fa
:04024c00f2030000b9
:020000040000fa
:04025000f2030000b5
:020000040000fa
:04025400f2030000b1
:020000040000fa
:04025800f2030000ad
:020000040000fa
:04025c00f2030000a9
:020000040000fa
:04026000f2030000a5
:020000040000fa
:04026400f2030000a1
:020000040000fa
:04026800f20300009d
:020000040000fa
:04026c00f203000099
:020000040000fa
:04027000f203000095
:020000040000fa
:04027400f203000091
:020000040000fa
:04027800f20300008d
:020000040000fa
:04027c00f203000089
:020000040000fa
:04028000f203000085
:020000040000fa
:100400004f1521000eff2c000e0188000000000097
:10041000000020000000e000020032000001200087
:100420002002880014000700f00007000000e00030
:1004300003003a00e02b21000100200002003700f9
:100440000000200001002000810f70000100320038
:100450000f000700000020000000e0000200320052
:1004600000000200000000008407020000000000fd
:100470000040da000000fe00200020000000e00044
:1004800002003200100020009001880000000600e9
:10049000a1028800800478000000eb001f003700f4
:1004a000e284440054a0b4009905ba00e2844400f8
:1004b00054a0b4009906ba00e284440054a0b400e9
:1004c0000006eb00476fde00fd07b200ae018800ba
:1004d000636ce10003003a000ad801000000eb0061
:1004e0000e003700606ce10008003a00004deb00a0
:1004f0000a05e800020039003420ec000af0a000f0
:100500008b05e900f9ff3e00040037006168e10057
:10051000010032000086eb000b00070019c7ba008b
:100520000e04e0001905ba0003003a000a00e000da
:10053000dbff3a0000000600fe07b200ae028800b2
:100540008a047800f5ff37000cd0a300e20f4d00bd
:100550001c00390089027800354dba000a05e80010
:10056000020039003420ec000af0a0008b05e900fd
:100570000f003200254dba000a05e80002003900dc
:100580003420ec000af0a0008b05e90008003200de
:100590000c00e0000600320015cdba000a05e800a4
:1005a000020039003420ec000af0a0008b05e900bd
:1005b0008984e80054a0b4000b00e000e2ff3a0098
:1005c000000006009902ba00055d78008b05e9007d
:1005d000f7ff3200c82ade00055d78008b05e900d0
:1005e000f3ff32000c00e000f1ff320019ddba0029
:1005f000eeff37000000fa000108a9000080fa00b1
:10060000004006003600f800809fbe00829fbe00ba
:10061000849fbe00869fbe000000fa000068a9000b
:1006200085050700f00607009c0307000080fa001c
:100630004f03be004f02be004f01be004f00be0080
:100640003600f900004006003600f800809fbe002a
:10065000829fbe00849fbe00869fbe000000fa00fd
:100660001d030700d0808000e18080006100400011
:10067000e0804800d0808800e18088000368a900fd
:100680000080fa004f03be004f02be004f01be00c3
:100690004f00be003600f90000400600809fbe00fb
:1006a0000000fa0001a8a90001188000e000210064
:1006b0000108780011188000e00021000080e800a7
:1006c0000108780021188000e0002100640040004b
:1006d0000108780031188000e00021006600400029
:1006e0000108780041188000e00021006800400007
:1006f0000108780010c0b30016f0b7000080fa00bf
:100700004f00be00004006003600f800809fbe008b
:10071000829fbe00849fbe00869fbe000000fa003c
:100720000188a90001818000f0808000808f500046
:1007300002003200ee060700010037002270ef00d1
:100740000080fa004f03be004f02be004f01be0002
:100750004f00be003600f900004006003600f800e9
:10076000809fbe00829fbe00849fbe00869fbe0009
:100770000000fa000168a900101180006400600008
:100780000000e000010032002242a90010118000a8
:10079000620060000000e000060032002222a90092
:1007a000050037003011800000407800180707006e
:1007b000010037000000000010118000610060009f
:1007c0000000e000f7ff3a000080fa004f03be008f
:1007d0004f02be004f01be004f00be003600f900c0
:1007e000004006000040da000000fe0000000500a6
:1007f00003f0a200889fbe008a9fbe008c1f780075
:100800001b010700220133006450e1004f00320059
:100810006420e1005200320003826c0007003b00bc
:100820000905d0000306d000820f54000c065d00bd
:1008300002003900020032008901780003067800c6
:100840008582550004003d000003fd008103fd008a
:100850008502ea008b854200840f720002003b0093
:1008600060001000e08018006011b8000005eb0087
:100870007a28e1000a00390006007800c75ddd0033
:10088000f707b200878075002d0037008281710064
:100890000a017800610560008180d1000080d300ea
:1008a0008502e900f9ff3b00060440008784480008
:1008b00002003b0060041400e0841c000988a300cf
:1008c000070032008a817100828171006101640039
:1008d0008904d1000884d3008b05e8001700370095
:1008e0000978a30013003a000b00e0001300340065
:1008f0008b05e9000804440089844c000a44740014
:100900000978a3000d003a000b00e0000700340056
:100910008b05e9000804440089844c0001003a007a
:100920000b0020000978a300f7ff32000001eb0064
:1009300002003700828171000a01780091000700ef
:100940000cf0a70001f0a000da0037006420e100fd
:1009500002003a00838f6c00da0033000801be0009
:100960000200be00d3003700889fbe008a9fbe00f1
:100970008c1f7800be000700c500330003866c00a2
:100980006450e1002e0032006420e10033003200a8
:100990006150e1002f0032006120e100310032009f
:1009a00085855500eb07b0000900200008042000f1
:1009b000050037000804440089844c000a00310017
:1009c0000603430087834b000001530081815b00d5
:1009d000f8ff33000203be000800a0000804440032
:1009e00089844c00f6ff3900c639dd0083017300ad
:1009f00001003200130020008904d1000884d300d4
:100a00000998a300050032000800a7000300a00019
:100a10008904d1000884d3008b05e8008904d10043
:100a20000884d3000001eb000281d20055000700ca
:100a300001f0a1000cf0a70001f0a0009d0037001c
:100a40006420e1009f0032000801be000200be00e9
:100a5000f7ff37006120e1009a0032006000b80023
:100a6000f3ff37000000200001f82700f0ff3700f7
:100a700014002000ca003700f4ff2f00c800370020
:100a80000001be00650007000470a70003f0a1008c
:100a90006509b100160032000d0035006828e1003c
:100aa00006003500f0ff2f00f1ff27000300e000f3
:100ab00013003b000100280000000500000040007a
:100ac000818048008502e900fcff3a0008003700f9
:100ad000f88f420002003c008000eb00000005009f
:100ae0008100d1000080d3008502e800fcff3a00bd
:100af0000300e00002003b0060001000e0801800ee
:100b0000000006000001be00440007000470a700ba
:100b100003f0a10003f8a30013003a006509b10037
:100b200010003200090035006928e100020035009c
:100b300001002800000005000000400081804800fe
:100b40008502e900fcff3a0000000600f88f420031
:100b5000050035008100d1000080d3008502e80047
:100b6000fcff3a00000006008000eb0000000500da
:100b70004f89de0082017800a40037006011b800c0
:100b8000b200370081002000618055000b003d005d
:100b90000b00200061fe2f000100e1001d00340069
:100ba00082817100610164008904d1000884d3004e
:100bb0000000e800faff3a007100200061006400c4
:100bc000030070000200600009003200610444006c
:100bd000e0844c000988a500050032008b05e80080
:100be0006808e10002003a008904d1000884d300bb
:100bf000f20f20000258e10005003d00c75ddd0056
:100c0000f907b2008980750008007800000006002e
:100c10000bf827008b00780000000500c70ade00f3
:100c2000f107b200f50fb20008003200e1cf420038
:100c3000020032000170a00024000500810f700046
:100c4000010032000408050044000500810f700017
:100c500002003a00140005008502e900000040008f
:100c600081c04800fcff3b000170a000240005008b
:100c70000004be00e9ff07000003be000405be003b
:100c80000200be00e5ff0700844f7500000006006b
:100c90000200be006450e100050036006420e1005f
:100ca000020036000968a30001003a000800be00f7
:100cb0000160a0004f0678004f05be004f04be0043
:100cc00000000600f0ff2f00f1ff2700f9ff3700ba
:100cd000889fbe008a9fbe008c1f7800e4ff07003b
:100ce000ebff330003866c006450e1002400320007
:100cf0006420e100270032006150e1002200320050
:100d00006120e100210032008b854200eb07b10039
:100d10000134b800003ab8000804420089844a004f
:100d2000013ab8000030b8008880400009014a004c
:100d300004003300000040008180480002014900a7
:100d40008b05e900c909dd00830170000100320054
:100d500013002000c814de004814dd004709de003f
:100d60001200b200c808de000884700085ff07008a
:100d700001f0a1000cf0a70001f0a000cdff3700aa
:100d80006120e100cfff32000801be000200be007a
:100d9000f7ff37006150e100fcff3a00c9ff370060
:100da000889fbe008a9fbe00841f7800b0ff0700a6
:100db0004f00780011003300f0ff2f00838f6c008c
:100dc00006003b00040565000a00a7000800370084
:100dd00009f0a6001000200008003700820f540020
:100de000838f5c00030039001000200001003e00ea
:100df0000000200009f0a7000000ea004f05be0037
:100e00004f04be000000e00000000600881f7800cc
:100e1000030478000300e00007003d0060001000bc
:100e2000e080180060011900e081190002003b0019
:100e300001f02d00030037000400070008f0a700b0
:100e400001f0a0004f04780000000600889fbe005b
:100e50008a9fbe000082700004027100048271004b
:100e6000260032000004be000200be006011b8007f
:100e70006b092000950220000182cf000a00390092
:100e80000541b1000082cf00070039000541b100e3
:100e90000982cf00040039000541b1000882cf006b
:100ea000010039000541b100054252001200320034
:100eb0000a003b0082817100610164008100d10061
:100ec0000080d3008984d3000884d3008b05e80018
:100ed0000442e800f7ff3a00070037000804440026
:100ee00089844c0000004800818048008b05e9009f
:100ef0000442e900f9ff3a0022ff07004f05be0057
:080f00004f04be0000000600d2
:020000040000fa
:100f08000a00fa00881f78006f050700b605070079
:100f18008d0207000b030700fe01070014030700fa
:100f28007504070004050700b5040700e14f5000e9
:100f380097003a00b6040700ad04070010079800b0
:100f48001e00900010007800008088001e009000ad
:100f58000080e80010007800108088001e009000d3
:100f68006400400010007800208088001e00900077
:100f78006600400010007800308088001e00900055
:100f88006800400010007800408088001e00900033
:100f9800100078008000eb00f6fe070032332300d3
:100fa8003305240048ff07000200200003582400ee
:100fb8006bfe0700d2cc2c00c304240042ff0700bc
:100fc80020079800310798002e019000be0190007c
:100fd800000020008120240061fe0700020020009c
:100fe800030a240000fe0700008a8800118a88008e
:100ff8001e0090000080e800100078008000eb00e0
:10100800dcfe070032332300330524002eff0700df
:10101800020020000358240051fe0700d2cc2c0007
:10102800c304240028ff0700200798003107980010
:101038002e019000be0190000000200081202400b5
:1010480047fe070002002000030a2400e6fd07000f
:10105800808a8800918a88001e0090006400400001
:10106800100078008000eb00c2fe07003233230036
:101078003305240014ff0700020020000358240051
:1010880037fe0700d2cc2c00c30424000eff070053
:1010980020079800310798002e019000be019000ab
:1010a80000002000812024002dfe070002002000ff
:1010b800030a2400ccfd0700208a8800318a8800b2
:1010c8001e00900066004000100078008000eb00d1
:1010d800a8fe07003233230033052400fafe070078
:1010e80002002000035824001dfe0700d2cc2c006b
:1010f800c3042400f4fe0700200798003107980075
:101108002e019000be0190000000200081202400e4
:1011180013fe070002002000030a2400b2fd0700a6
:10112800408a8800518a88001e00900068004000ac
:10113800100078008000eb008efe07003233230099
:1011480033052400e0fe07000200200003582400b5
:1011580003fe0700d2cc2c00c3042400dafe0700eb
:1011680020079800310798002e019000be019000da
:101178000000200081202400f9fd07000200200063
:10118800030a240098fd0700608a8800718a880095
:10119800008a8000118a800018c0b3000200200075
:1011a800031f240030fe07000000e00001003500a6
:1011b8000044eb000804e0000b003a00808a80003d
:1011c800918a800018c0b30002002000031f240089
:1011d80025fe07000000e000010035000044eb0098
:1011e8000804e00002003200254ea8000100370084
:1011f800254ea900208a8000318a800018c0b300db
:1012080002002000031f240017fe07000000e00072
:10121800010035000044eb000804e0000200320041
:1012280064eea8000100370064eea900408a80003f
:10123800518a800018c0b30002002000031f240058
:1012480009fe07000000e000010035000044eb0043
:101258000804e0000b003a00608a8000718a800070
:1012680018c0b30002002000031f2400fefd070081
:101278000000e000010035000044eb000804e00035
:101288000200320064cea8000100370064cea90035
:101298000000eb00000f7800060037006804070024
:1012a800004f98006800470011002000dc03070089
:1012b8001e0fe8007e0407009e0f5000f7ff3c0059
:1012c8000071220001002000e204070016ff370029
:1012d8000000fa000ad0bf000080fb00cf80de00cb
:1012e800b200200003002000820f5000838f5800b6
:1012f80062003e00000601000b00370014003700b2
:101308001d0037002700370028003700320037005b
:10131800330037003d0037003e00370048003700f3
:1013280049003700530037001a30ef001c30ef0037
:1013380012c0b3006000b800290207000041eb00aa
:101348006000b8002602070010c0b3000af0b7001a
:10135800d2808000e3808000803e200001002000d1
:10136800800f5100818f59004700360020c0b3001c
:101378000af0b7004500370012c0b3000000200093
:1013880001122400160207000041eb0000002000b3
:10139800011224001202070030c0b3000af0b7009f
:1013a8003a0037003b0007003800370012c0b3008e
:1013b8000000200001122400090207000041eb0090
:1013c8000000200001122c000502070050c0b300e5
:1013d8000af0b7002d0037002e0007002b00370059
:1013e80012c0b3000000200001122c00fc0107000d
:1013f8000041eb000000200001122400f801070062
:1014080070c0b3000af0b7002000370021000700c1
:101418001e00370012c0b30000002000011724008e
:10142800ef0107000041eb000000200001172c002d
:10143800eb01070090c0b3000af0b70013003700b3
:10144800140007001100370012c0b300000020008c
:1014580001122c00e20107000041eb00000020000f
:1014680001122400de010700b0c0b3000af0b70083
:101478000600370007000700040037000a70ef0075
:101488000000000001003700000000000080fa00a2
:10149800000006000200fa00881f78000040eb00f8
:1014a800004f7800008a8000118a800018c0b300bd
:1014b80002002000031f24006dfd07000000e0006b
:1014c80001003c000044eb000804e0002f0032005b
:1014d800808a8000918a800018c0b3000200200032
:1014e800031a240062fd07000000e00001003c0030
:1014f8000044eb000804e00024003200208a800049
:10150800318a800018c0b30002002000031f2400a5
:1015180057fd07000000e00001003c000044eb001c
:101528000804e00019003200608a8000718a800097
:1015380018c0b30002002000031a24004cfd070065
:101548000000e00001003c000044eb000804e0005b
:101558000e003200408a8000518a800018c0b30013
:1015680002002000031f240041fd07000000e000e6
:1015780001003c000044eb000804e00003003200d6
:101588000040eb00004f78003f003700208a8000c1
:10159800318a800018c0b30002002000031f240015
:1015a80031fd07000000e000010034000044eb00ba
:1015b8000804e0000300320030c0b300004f780098
:1015c80031003700008a8000118a800018c0b300fb
:1015d80002002000031f240023fd07000000e00094
:1015e800010035000044eb000804e0000b003a005d
:1015f800808a8000918a800018c0b3000200200011
:10160800031a240018fd07000000e000010035005f
:101618000044eb000804e0000300320020c0b300df
:10162800004f780018003700608a8000718a8000b7
:1016380018c0b30002002000031f24000afd0700a1
:101648000000e000010035000044eb000804e00061
:101658000b003a00408a8000518a800018c0b3000d
:1016680002002000031a2400fffc07000000e0002d
:10167800010035000044eb000804e00002003200dd
:1016880010c0b300004f78001e4078000004e0004e
:1016980003003a0020c0b3000bf0b7001100370078
:1016a8001e407800e24f500003003a0040c0b300eb
:1016b8000bf0b7000b0037001e407800e14f5000d8
:1016c80003003a0060c0b3000bf0b7000500370014
:1016d8001e407800e34f500002003a00a0c0b3005b
:1016e8000bf0b7000bd0bf008080fb000ad0bf0012
:1016f8000080fb000000e900808f500002003200eb
:101708000bd0bf000af0b7004f0478000080fa0041
:10171800000006000000fa0013e1a90011e1a90089
:101728001061a8001021a90081088000f0fc2f009a
:1017380000806000800888000a21ef000621ef0081
:10174800404c20007008880000402b00600888008a
:101758002142800080ff2f00008060000000a00070
:10176800204288000108a9002108a80011e1a8006a
:101778000080fa00000006000400fa00881f7800c4
:10178800008fbe0021088000f0fc2f000080600060
:10179800200888001e0178009e019000006829003a
:1017a80081c124006efc070018c0b30002f02f00ae
:1017b800f3772400aefc07000000e00001003c00c5
:1017c8000044eb000804e0005400320021088000c7
:1017d800f0fc2f00008060000040a0002008880076
:1017e8001e0178009e0190000068290081c1240034
:1017f8005bfc0700020020000310240058fc0700cf
:1018080018c0b30002f02f00f377240098fc0700fb
:101818000000e00001003c000044eb000804e00088
:101828003200320021088000f0fc2f0000806000a8
:101838000050a000200888001e0178009e0190003a
:101848000068290081c1240045fc0700020020002f
:101858000328240042fc070018c0b30002f02f0040
:10186800f377240082fc07000000e00001003c0040
:101878000044eb000804e00010003200210880005a
:101888000003200001007000200888001e01780075
:101898009e0190000068290081c1240030fc0700e7
:1018a80002002000033824002dfc070072fc07000a
:1018b8000000780010088800200037001e0178001a
:1018c8009e0190000068290081c1240024fc0700c3
:1018d800020020000328240021fc070066fc070002
:1018e8000000780010088800140037001e017800f6
:1018f8009e0190000068290081c1240018fc07009f
:10190800020020000310240015fc07005afc070001
:101918000000780010088800080037001e017800d1
:101928009e0190000068290081c124000cfc07007a
:1019380051fc070000007800100888004f04780068
:101948000080fa00000006000000fa0000002800ed
:10195800a137240088ff070005e1a9000421a90098
:101968000068a9002068a80005e1a8000080fa0026
:10197800000006000400fa00881f7800008fbe00ef
:10198800f1088000f0fc2f0000806000f00888005b
:101998001e0178009e0190000068290081c1240082
:1019a800effb070018c0b30002f02f00f377240004
:1019b8002ffc07000000e00001003c000044eb00a1
:1019c8000804e00054003200f1088000f0fc2f0009
:1019d800008060000040a000f00888001e01780028
:1019e8009e0190000068290081c12400dcfb0700eb
:1019f8000200200003102400d9fb070018c0b30020
:101a080002f02f00f377240019fc07000000e00023
:101a180001003c000044eb000804e0003200320002
:101a2800f1088000f0fc2f00008060000050a0004a
:101a3800f00888001e0178009e01900000682900c7
:101a480081c12400c6fb07000200200003282400ef
:101a5800c3fb070018c0b30002f02f00f37724007f
:101a680003fc07000000e00001003c000044eb001c
:101a78000804e00010003200f10880000003200094
:101a880001007000f00888001e0178009e01900097
:101a98000068290081c12400b1fb07000200200072
:101aa80003382400aefb0700f3fb070000007800b2
:101ab80010088800200037001e0178009e01900061
:101ac8000068290081c12400a5fb0700020020004e
:101ad80003282400a2fb0700e7fb070000007800aa
:101ae80010088800140037001e0178009e0190003d
:101af8000068290081c1240099fb0700020020002a
:101b08000310240096fb0700dbfb070000007800a9
:101b180010088800080037001e0178009e01900018
:101b28000068290081c124008dfb0700d2fb070053
:101b380000007800100888004f0478000080fa0040
:101b4800000006000000fa0000002000a147240061
:101b580088ff07001fe1a9001e21a9000368a9004a
:101b68002368a8001fe1a8000080fa000000060012
:101b78000000fa001160800080ff2f0000806000e4
:101b88001060880000fa20002060880023aca800bc
:101b9800238ca80011618000f03f2f0000806000b6
:101ba80000a0a0001061880030002000206188009b
:101bb800c3aca800c38ca80011668000f03f2f00ba
:101bc8000080600000a0a00010668800300020009f
:101bd8002066880001eca8000080fa0000000600da
:101be8000600fa00008fbe00424798004e40900061
:101bf800e14f500005003a001e0178009e01900058
:101c0800a2898800b3898800070037004e409000f9
:101c18000004e00004003a001e0178009e019000d4
:101c280062898800738988000080fa000000060035
:101c38000000fa00889fbe008a9fbe00c489800009
:101c4800d5898000a0898000b189800018c0b300c0
:101c58000001be000400be0083fb07000000e00096
:101c6800010035000044eb000804e0000f003200da
:101c7800a8898000b9898000ca898000db89800032
:101c880028d0bf000080fb00cf80de00b6fb070035
:101c98000001be000a00be00d4fa07000801be0019
:101ca800bc000700c0898800d1898800c4898000e9
:101cb800d5898000a0898000b189800018c0b30050
:101cc8000001be000400be0069fb07000000e00040
:101cd80001003c000044eb000804e0000f00320063
:101ce800a8898000b9898000ca898000db898000c2
:101cf80028d0bf000080fb00cf80de009afb0700e1
:101d08000001be000a00be00b7fa07000801be00c5
:101d180088000700c0898800d1898800c0898000b0
:101d2800d189800018c0b3006011b8004efb0700cd
:101d38000000e000010035000044eb000804e0006a
:101d480004003200c3cca90024eea800c3eca8000c
:101d580003003700c3eca90024cea800c3cca80018
:101d6800c0898000d18980005c0007000200200043
:101d780003222400d4fb070060fb07000000780062
:101d88003066880084898000958980006089800099
:101d98007189800018c0b3000001be000400be00b5
:101da80031fb07000000e000010035000044eb00b3
:101db8000804e0000f0032006889800079898000fb
:101dc8008a8980009b89800028d0bf000080fb00a2
:101dd800cf80de0064fb07000001be000a00be00e1
:101de80082fa07000801be006a000700808988009f
:101df80091898800848980009589800060898000a5
:101e08007189800018c0b3000001be000400be0044
:101e180017fb07000000e00001003c000044eb0055
:101e28000804e0000f00320068898000798980008a
:101e38008a8980009b89800028d0bf000080fb0031
:101e4800cf80de0048fb07000001be000a00be008c
:101e580065fa07000801be0036000700808988007f
:101e680091898800808980009189800018c0b3001a
:101e78006011b800fefa07000000e00001003c0015
:101e88000044eb000804e0000400320023cca90061
:101e980015eea80023eca8000300370023eca900e6
:101ea80015cea80023cca8008089800091898000e5
:101eb8000a000700020020000322240082fb07001a
:101ec8000efb070000007800306188004f05be0057
:101ed8004f04be000080fa00000006000400fa006b
:101ee800881f7800008fbe0018c0b3006011b800ca
:101ef8001e0078009e009000ddfa07000000e00058
:101f080001003d000044eb000804e000030032003b
:101f18001e0078009e009000030037001e00780025
:101f28009e00900001f0a2004f0478000080fa00a3
:101f3800000006000800fa00881f7800008fbe0025
:101f4800220798003307980018c0b3002e019000ac
:101f5800be0190001e0078009e009000c4fa0700a1
:101f68000000e00001003c000044eb000804e00031
:101f7800030032001e0078009e0090000200370027
:101f88002e009000be0090004f0478000080fa00f8
:101f9800000006000800fa00881f7800008fbe00c5
:101fa800220798003307980018c0b3002e0190004c
:101fb800be0190001e0078009e009000aafa07005b
:101fc8000000e000010035000044eb000804e000d8
:101fd800030032001e0078009e00900002003700c7
:101fe8002e009000be0090004f0478000080fa0098
:101ff800000006000c00fa00881f7800008fbe0061
:10200800220798003307980044079800550798005e
:1020180018c0b3004e019000de0190001e00780049
:102028009e00900092fa07000000e00001003c00ca
:102038000044eb000804e000040032004e01900068
:10204800de019000028fbe000e00370018c0b300fa
:102058002e019000be0190001e0078009e009000a6
:1020680081fa07000000e000010035000044eb00a1
:102078000804e000030032002e019000be01900029
:10208800028fbe001e0078009e0090004f0478006a
:102098000080fa00000006000400fa00008fbe006d
:1020a800a2e82900a30524001e0078009e009000e5
:1020b8002bfa0700020020004333240002fb07002c
:1020c8000080fa00000006000400fa00008fbe003d
:1020d800a2e82900a30524001e0078009e009000b5
:1020e800f9fa070002002000433324001cfa070015
:1020f8000080fa00000006000000fa0021e3a900b1
:102108002143a80001198000f0cf2f000080600053
:10211800001988002043a90001198000000e200042
:10212800010070000019880011198000f0ff2100db
:1021380000806000101988002343a800111980004e
:10214800f0cf2f000080600010198800111980005e
:1021580030f82f00008060000040a00010198800af
:102168002203a9002223a90025e3a900f0c0b30097
:1021780024e3b70021198000f00f2e008080600052
:1021880000f0200001007000201988003303a90026
:102198002e0ea8002f6ea8006f2ea8001e2ea800d5
:1021a8004feea8003063a80030c3a8003163a80030
:1021b80031e3a8002e03a8004119800000fc2f007d
:1021c800008060004019880028e3a90001a8a90040
:1021d80021a8a80021e3a8000080fa00000006005a
:1021e8000000fa002023a8000080fa000000060082
:1021f8000000fa00e00021000080fa00000006005c
:102208000000fa0016d0bf000080fa0000000600a7
:102218000000fa001670ef000080fa0000000600c7
:102228000600fa0010079800210798000040eb000c
:10223800004f780039000700ae009000810f500071
:10224800110034000040eb00004f78000600370012
:102258001e80fb009e009000008040001040780027
:102268000b0007001e4fe8009e80fb002e00900028
:10227800808f5000f6ff3500240007000004e000be
:1022880001003a00180007000080fa00000006006c
:102298000200fa00004f780000818000a1022100ae
:1022a800008040001e487800008180000000e8009f
:1022b800008188000080fa00000006000200fa0091
:1022c800f0808000a102210000804000104f7800bb
:1022d800f08080000000e800f08088001e40780050
:1022e8000080fa00000006000200fa0010c0b300e7
:1022f80022f0b700f1ff0700004f78001e80fb00b6
:10230800201188000080fa00000006000000fa0092
:1023180022d0bf000080fa00000006000200fa0088
:102328000081800001082000008f50001e00780006
:102338000080fa00000006000000fa002002a90050
:102348000111800090ff2f000080600000118800bc
:1023580020a2a9002062a800500520004011880092
:1023680023a2a90023e2a9000188a9002188a800c6
:1023780011118000f0f32f00008060001011880018
:102388000168a9002168a80021e2a8002342a8004a
:102398000080fa00000006000600fa001007980006
:1023a800210798000040eb00004f78000040eb0048
:1023b800004f78000e003700000000001111800067
:1023c80000202000008060000000e000fbff3a00d1
:1023d8001e009000104078000080fb00201188004b
:1023e8001e0090000000e800100798001e4fe8004b
:1023f8009e80fb002e009000808f5000eeff35007d
:102408000080fa00000006000200fa00004f780081
:10241800200007000000e000070034002081800051
:10242800a10a2100008040001e4878002081800019
:102438000000e800208188000080fa000000060003
:102448000200fa0030818000a10a210000804000cb
:10245800104f7800308180000000e800308188004b
:102468001e4078000080fa00000006000000fa0014
:102478002181800030818000808f5000020032006e
:1024880010c0b300010037000040eb000080fa00e4
:10249800000006000200fa003081800001082000d8
:1024a800008f50001e0078000080fa00000006002f
:1024b8000200fa0021818000010f78001e007800d8
:1024c8000080fa00000006000000fa00f003200077
:1024d800303a8800213a8000f0f32f000080600035
:1024e800203a8800213a800000fe2f00008060001a
:1024f8000000a000203a8800120020008007200079
:10250800a1092000337420008049780081497800af
:1025180082497800103a8000000178000200a0008b
:102528006004200071052000237420008049780091
:10253800814978008249780000000000113a800043
:10254800000027008080600000002100808f50007c
:10255800faff3a0000000000113a80000002200053
:10256800008060000000e000fbff32000080fa00fd
:042578000000060059
:020000040000fa
:10257c00001000000c00000080000000181000008b
:10258c0006000000800000002a1100002a00000054
:10259c0080000000281000000200000082000000f3
:1025ac00320000000c1000000c0000008000000045
:1025bc002a10000080000000800000001e100000a7
:1025cc000600000080000000aa100000800000003f
:1025dc0080000000241000000400000080000000b7
:0425ec0000000000eb
:020000040000fa
:1025f0000000fa000e2eef001e2eef002e2eef0030
:102600003e2eef004e2eef005e2eef006e2eef00fe
:10261000214ea90060cea90060eea90011cea9004c
:1026200011eea90020cea90020eea90011348000ef
:1026300000fc2f00008060000000a0001034880023
:102640002136800000f82f00008060008001b30078
:0c265000203688000080fa000000060020
:020000040000fa
:10265c00f03fb1000180b10006003500ee03090027
:10266c0000000000403fb1000180b100fbff3d00c5
:10267c001000b000203fb0000200350000800900bf
:08268c00000000000000060040
:020000040000fa
:02000004000af0
:04afe000cfff00009f
:020000040000fa
:02000004000af0
:04afe400ffff00006b
:020000040000fa
:02000004000af0
:04afe8007fff0000e7
:020000040000fa
:02000004000af0
:04afec005fff000003
:020000040000fa
:02000004000af0
:04aff00038ff000026
:020000040000fa
:02000004000af0
:04aff400ffff00005b
:00000001FF
