:020000040000fa
:080000000002040000000000f2
:020000040000fa
:04000800840300006d
:020000040000fa
:04000c008403000069
:020000040000fa
:040010008403000065
:020000040000fa
:040014008403000061
:020000040000fa
:04001800840300005d
:020000040000fa
:04001c008403000059
:020000040000fa
:040020008403000055
:020000040000fa
:040024008403000051
:020000040000fa
:04002800840300004d
:020000040000fa
:04002c008403000049
:020000040000fa
:040030008403000045
:020000040000fa
:0400340002030000c3
:020000040000fa
:04003800840300003d
:020000040000fa
:04003c008403000039
:020000040000fa
:040040008403000035
:020000040000fa
:040044008403000031
:020000040000fa
:04004800fa020000b8
:020000040000fa
:04004c008403000029
:020000040000fa
:040050008403000025
:020000040000fa
:040054008403000021
:020000040000fa
:04005800840300001d
:020000040000fa
:04005c004e0300004f
:020000040000fa
:040060008403000015
:020000040000fa
:040064008403000011
:020000040000fa
:04006800840300000d
:020000040000fa
:04006c008403000009
:020000040000fa
:040070008403000005
:020000040000fa
:040074008403000001
:020000040000fa
:0400780084030000fd
:020000040000fa
:04007c0084030000f9
:020000040000fa
:0400800084030000f5
:020000040000fa
:0400840084030000f1
:020000040000fa
:0400880084030000ed
:020000040000fa
:04008c0084030000e9
:020000040000fa
:0400900084030000e5
:020000040000fa
:040094002403000041
:020000040000fa
:0400980084030000dd
:020000040000fa
:04009c0084030000d9
:020000040000fa
:0400a00084030000d5
:020000040000fa
:0400a40084030000d1
:020000040000fa
:0400a80084030000cd
:020000040000fa
:0400ac0084030000c9
:020000040000fa
:0400b00084030000c5
:020000040000fa
:0400b40084030000c1
:020000040000fa
:0400b80084030000bd
:020000040000fa
:0400bc0084030000b9
:020000040000fa
:0400c00084030000b5
:020000040000fa
:0400c40084030000b1
:020000040000fa
:0400c80084030000ad
:020000040000fa
:0400cc0084030000a9
:020000040000fa
:0400d00084030000a5
:020000040000fa
:0400d40084030000a1
:020000040000fa
:0400d800840300009d
:020000040000fa
:0400dc008403000099
:020000040000fa
:0400e0008403000095
:020000040000fa
:0400e4008403000091
:020000040000fa
:0400e800840300008d
:020000040000fa
:0400ec008403000089
:020000040000fa
:0400f0008403000085
:020000040000fa
:0400f4008403000081
:020000040000fa
:0400f800840300007d
:020000040000fa
:0400fc008403000079
:020000040000fa
:040100008403000074
:020000040000fa
:040104008403000070
:020000040000fa
:04010800840300006c
:020000040000fa
:04010c008403000068
:020000040000fa
:040110008403000064
:020000040000fa
:040114008403000060
:020000040000fa
:04011800840300005c
:020000040000fa
:04011c008403000058
:020000040000fa
:040120008403000054
:020000040000fa
:040124008403000050
:020000040000fa
:04012800840300004c
:020000040000fa
:04012c008403000048
:020000040000fa
:040130008403000044
:020000040000fa
:040134008403000040
:020000040000fa
:04013800840300003c
:020000040000fa
:04013c008403000038
:020000040000fa
:040140008403000034
:020000040000fa
:040144008403000030
:020000040000fa
:04014800840300002c
:020000040000fa
:04014c008403000028
:020000040000fa
:040150008403000024
:020000040000fa
:040154008403000020
:020000040000fa
:04015800840300001c
:020000040000fa
:04015c008403000018
:020000040000fa
:040160008403000014
:020000040000fa
:040164008403000010
:020000040000fa
:04016800840300000c
:020000040000fa
:04016c008403000008
:020000040000fa
:040170008403000004
:020000040000fa
:040174008403000000
:020000040000fa
:0401780084030000fc
:020000040000fa
:04017c0084030000f8
:020000040000fa
:0401800084030000f4
:020000040000fa
:0401840084030000f0
:020000040000fa
:0401880084030000ec
:020000040000fa
:04018c0084030000e8
:020000040000fa
:0401900084030000e4
:020000040000fa
:0401940084030000e0
:020000040000fa
:0401980084030000dc
:020000040000fa
:04019c0084030000d8
:020000040000fa
:0401a00084030000d4
:020000040000fa
:0401a40084030000d0
:020000040000fa
:0401a80084030000cc
:020000040000fa
:0401ac0084030000c8
:020000040000fa
:0401b00084030000c4
:020000040000fa
:0401b40084030000c0
:020000040000fa
:0401b80084030000bc
:020000040000fa
:0401bc0084030000b8
:020000040000fa
:0401c00084030000b4
:020000040000fa
:0401c40084030000b0
:020000040000fa
:0401c80084030000ac
:020000040000fa
:0401cc0084030000a8
:020000040000fa
:0401d00084030000a4
:020000040000fa
:0401d40084030000a0
:020000040000fa
:0401d800840300009c
:020000040000fa
:0401dc008403000098
:020000040000fa
:0401e0008403000094
:020000040000fa
:0401e4008403000090
:020000040000fa
:0401e800840300008c
:020000040000fa
:0401ec008403000088
:020000040000fa
:0401f0008403000084
:020000040000fa
:0401f4008403000080
:020000040000fa
:0401f800840300007c
:020000040000fa
:0401fc008403000078
:020000040000fa
:040200008403000073
:020000040000fa
:04020400840300006f
:020000040000fa
:04020800840300006b
:020000040000fa
:04020c008403000067
:020000040000fa
:040210008403000063
:020000040000fa
:04021400840300005f
:020000040000fa
:04021800840300005b
:020000040000fa
:04021c008403000057
:020000040000fa
:040220008403000053
:020000040000fa
:04022400840300004f
:020000040000fa
:04022800840300004b
:020000040000fa
:04022c008403000047
:020000040000fa
:040230008403000043
:020000040000fa
:04023400840300003f
:020000040000fa
:04023800840300003b
:020000040000fa
:04023c008403000037
:020000040000fa
:040240008403000033
:020000040000fa
:04024400840300002f
:020000040000fa
:04024800840300002b
:020000040000fa
:04024c008403000027
:020000040000fa
:040250008403000023
:020000040000fa
:04025400840300001f
:020000040000fa
:04025800840300001b
:020000040000fa
:04025c008403000017
:020000040000fa
:040260008403000013
:020000040000fa
:04026400840300000f
:020000040000fa
:04026800840300000b
:020000040000fa
:04026c008403000007
:020000040000fa
:040270008403000003
:020000040000fa
:0402740084030000ff
:020000040000fa
:0402780084030000fb
:020000040000fa
:04027c0084030000f7
:020000040000fa
:0402800084030000f3
:020000040000fa
:10040000af0421000eff27000e018800000000004d
:10041000000020000000e000020032000001200087
:100420002002880014000700b90007000000e00067
:1004300003003a00e018210001002000020037000c
:100440000000200001002000810f70000100320038
:100450000f000700000020000000e0000200320052
:1004600000000200000000001e0702000000000063
:100470000040da000000fe00800020000000e000e4
:1004800002003200002020009001880000000600d9
:10049000a1028800800478000000eb001f003700f4
:1004a000e284440054a0b4009905ba00e2844400f8
:1004b00054a0b4009906ba00e284440054a0b400e9
:1004c0000006eb00476fde00fd07b200ae018800ba
:1004d000636ce10003003a000ad801000000eb0061
:1004e0000e003700606ce10008003a00004deb00a0
:1004f0000a05e800020039003420ec000af0a000f0
:100500008b05e900f9ff3e00040037006168e10057
:10051000010032000086eb000b00070019c7ba008b
:100520000e04e0001905ba0003003a000a00e000da
:10053000dbff3a0000000600fe07b200ae028800b2
:100540008a047800f5ff37000cd0a300e20f4d00bd
:100550001c00390089027800354dba000a05e80010
:10056000020039003420ec000af0a0008b05e900fd
:100570000f003200254dba000a05e80002003900dc
:100580003420ec000af0a0008b05e90008003200de
:100590000c00e0000600320015cdba000a05e800a4
:1005a000020039003420ec000af0a0008b05e900bd
:1005b0008984e80054a0b4000b00e000e2ff3a0098
:1005c000000006009902ba00055d78008b05e9007d
:1005d000f7ff3200c82ade00055d78008b05e900d0
:1005e000f3ff32000c00e000f1ff320019ddba0029
:1005f000eeff37000000fa000108a9000080fa00b1
:10060000004006003600f800809fbe00829fbe00ba
:10061000849fbe00869fbe000000fa000068a9000b
:1006200047050700b20607005e0307000080fa00d6
:100630004f03be004f02be004f01be004f00be0080
:100640003600f900004006003600f800809fbe002a
:10065000829fbe00849fbe00869fbe000000fa00fd
:10066000df020700d0808000e18080006100400050
:10067000e0804800d0808800e18088000368a900fd
:100680000080fa004f03be004f02be004f01be00c3
:100690004f00be003600f90000400600809fbe00fb
:1006a0000000fa0001a8a90001188000e000210064
:1006b0000108780011188000e00021000080e800a7
:1006c0000108780021188000e0002100640040004b
:1006d0000108780031188000e00021006600400029
:1006e0000108780041188000e00021006800400007
:1006f0000108780010c0b30016f0b7000080fa00bf
:100700004f00be00004006000040da000000fe007e
:100710000000050003f0a200889fbe008a9fbe0073
:100720008c1f78001b010700220133006450e10098
:100730004f0032006420e1005200320003826c005e
:1007400007003b000905d0000306d000820f5400cb
:100750000c065d00020039000200320089017800b9
:10076000030678008582550004003d000003fd006b
:100770008103fd008502ea008b854200840f720030
:1007800002003b0060001000e08018006011b8001b
:100790000005eb007a28e1000a0039000600780025
:1007a000c75ddd00f707b200878075002d003700b8
:1007b000828171000a017800610560008180d100aa
:1007c0000080d3008502e900f9ff3b0006044000e9
:1007d0008784480002003b0060041400e0841c0091
:1007e0000988a300070032008a81710082817100ac
:1007f000610164008904d1000884d3008b05e800fe
:10080000170037000978a30013003a000b00e0003e
:10081000130034008b05e9000804440089844c006f
:100820000a4474000978a3000d003a000b00e000b0
:10083000070034008b05e9000804440089844c005b
:1008400001003a000b0020000978a300f7ff3200f6
:100850000001eb0002003700828171000a0178007c
:10086000910007000cf0a70001f0a000da003700ab
:100870006420e10002003a00838f6c00da0033004c
:100880000801be000200be00d3003700889fbe00f2
:100890008a9fbe008c1f7800be000700c500330091
:1008a00003866c006450e1002e0032006420e100f9
:1008b000330032006150e1002f0032006120e1007e
:1008c0003100320085855500eb07b000090020009b
:1008d00008042000050037000804440089844c0007
:1008e0000a0031000603430087834b0000015300d8
:1008f00081815b00f8ff33000203be000800a00006
:100900000804440089844c00f6ff3900c639dd0034
:100910008301730001003200130020008904d1001c
:100920000884d3000998a300050032000800a7003e
:100930000300a0008904d1000884d3008b05e800df
:100940008904d1000884d3000001eb000281d200a9
:100950005500070001f0a1000cf0a70001f0a00075
:100960009d0037006420e1009f0032000801be00b6
:100970000200be00f7ff37006120e1009a0032005c
:100980006000b800f3ff37000000200001f82700e6
:10099000f0ff370014002000ca003700f4ff2f00da
:1009a000c80037000001be00650007000470a70002
:1009b00003f0a1006509b100160032000d003500fa
:1009c0006828e10006003500f0ff2f00f1ff270046
:1009d0000300e00013003b000100280000000500b8
:1009e00000004000818048008502e900fcff3a00d9
:1009f00008003700f88f420002003c008000eb0046
:100a0000000005008100d1000080d3008502e800cd
:100a1000fcff3a000300e00002003b006000100011
:100a2000e0801800000006000001be00440007003e
:100a30000470a70003f0a10003f8a30013003a001c
:100a40006509b10010003200090035006928e10095
:100a500002003500010028000000050000004000f1
:100a6000818048008502e900fcff3a000000060092
:100a7000f88f4200050035008100d1000080d300ce
:100a80008502e800fcff3a00000006008000eb0051
:100a9000000005004f89de0082017800a4003700c5
:100aa0006011b800b200370081002000618055005d
:100ab0000b003d000b00200061fe2f000100e10053
:100ac0001d00340082817100610164008904d1003d
:100ad0000884d3000000e800faff3a00710020000b
:100ae0006100640003007000020060000900320031
:100af00061044400e0844c000988a5000500320030
:100b00008b05e8006808e10002003a008904d10082
:100b10000884d300f20f20000258e10005003d00d8
:100b2000c75ddd00f907b200898075000800780014
:100b3000000006000bf827008b007800000005007d
:100b4000c70ade00f107b200f50fb200080032005c
:100b5000e1cf4200020032000170a0002400050035
:100b6000810f7000010032000408050044000500f8
:100b7000810f700002003a00140005008502e900b0
:100b80000000400081c04800fcff3b000170a00055
:100b9000240005000004be00e9ff07000003be00ba
:100ba0000405be000200be00e5ff0700844f75008b
:100bb000000006000200be006450e100050036009f
:100bc0006420e100020036000968a30001003a0039
:100bd0000800be000160a0004f0678004f05be006f
:100be0004f04be0000000600f0ff2f00f1ff2700b9
:100bf000f9ff3700889fbe008a9fbe008c1f7800d7
:100c0000e4ff0700ebff330003866c006450e10053
:100c1000240032006420e100270032006150e1002e
:100c2000220032006120e100210032008b85420069
:100c3000eb07b1000134b800003ab80008044200e4
:100c400089844a00013ab8000030b800888040002a
:100c500009014a0004003300000040008180480080
:100c6000020149008b05e900c909dd00830170001c
:100c70000100320013002000c814de004814dd001b
:100c80004709de001200b200c808de0008847000c8
:100c900085ff070001f0a1000cf0a70001f0a00003
:100ca000cdff37006120e100cfff32000801be0018
:100cb0000200be00f7ff37006150e100fcff3a0080
:100cc000c9ff3700889fbe008a9fbe00841f78003e
:100cd000b0ff07004f00780011003300f0ff2f0035
:100ce000838f6c0006003b00040565000a00a70026
:100cf0000800370009f0a6001000200008003700a7
:100d0000820f5400838f5c00030039001000200024
:100d100001003e000000200009f0a7000000ea00ea
:100d20004f05be004f04be000000e00000000600ba
:100d3000881f7800030478000300e00007003d00ee
:100d400060001000e080180060011900e0811900c7
:100d500002003b0001f02d000300370004000700f3
:100d600008f0a70001f0a0004f0478000000060082
:100d7000889fbe008a9fbe0000827000040271003e
:100d800004827100260032000004be000200be0092
:100d90006011b8006b092000950220000182cf008d
:100da0000a0039000541b1000082cf000700390078
:100db0000541b1000982cf00040039000541b100ae
:100dc0000882cf00010039000541b1000542520000
:100dd000120032000a003b00828171006101640050
:100de0008100d1000080d3008984d3000884d3001f
:100df0008b05e8000442e800f7ff3a0007003700df
:100e00000804440089844c000000480081804800a8
:100e10008b05e9000442e900f9ff3a0022ff0700d0
:0c0e20004f05be004f04be00000006009d
:020000040000fa
:100e2c00426f00006e6a00006f75000072000000d7
:020000040000fa
:100e3c000600fa00881f7800ef0407001905070068
:100e4c008202070000030700f301070009030700f3
:100e5c006a040700b3040700aa040700e14f50001e
:100e6c0095003a00ab040700a2040700000f7800bd
:100e7c001e00780010007800008088001e80e800ba
:100e8c0010007800108088009e007800648040007c
:100e9c0010007800208088009e007800668040005a
:100eac0010007800308088009e0078006880400038
:100ebc0010007800408088001e0078001000780038
:100ecc008000eb00f3fe07003233230033052400cf
:100edc0045ff0700020020000358240068fe0700ad
:100eec00d2cc2c00c30424003fff0700100798004d
:100efc00210798001e019000ae0190000000200018
:100f0c00812024005efe070002002000030a24005a
:100f1c00fdfd0700b0818800c18188001e80e800bb
:100f2c00100078008000eb00dafe0700323323005b
:100f3c00330524002cff0700020020000358240076
:100f4c004ffe0700d2cc2c00c304240026ff070060
:100f5c0010079800210798001e019000ae01900028
:100f6c00000020008120240045fe07000200200024
:100f7c00030a2400e4fd07003082880041828800c7
:100f8c009e00780064804000100078008000eb0028
:100f9c00c0fe0700323323003305240012ff070084
:100fac00020020000358240035fe0700d2cc2c0090
:100fbc00c30424000cff07001007980021079800b9
:100fcc001e019000ae019000000020008120240042
:100fdc002bfe070002002000030a2400cafd0700b4
:100fec00d0818800e18188009e00780066804000f6
:100ffc00100078008000eb00a6fe070032332300bf
:10100c0033052400f8fe07000200200003582400da
:10101c001bfe0700d2cc2c00c3042400f2fe0700f8
:10102c0010079800210798001e019000ae01900057
:10103c00000020008120240011fe07000200200087
:10104c00030a2400b0fd0700f081880001828800ab
:10105c009e00780068804000100078008000eb0053
:10106c008cfe07003233230033052400defe07001c
:10107c00020020000358240001fe0700d2cc2c00f3
:10108c00c3042400d8fe070010079800210798001d
:10109c001e019000ae019000000020008120240071
:1010ac00f7fd070002002000030a240096fd07004c
:1010bc001082880021828800b0818000c18180006c
:1010cc0018c0b30002002000031f24002efe0700ee
:1010dc000000e000010035000044eb000804e000d3
:1010ec000b003a00308280004182800018c0b300af
:1010fc0002002000031f240023fe07000000e00074
:10110c00010035000044eb000804e000020032004e
:10111c00254ea80001003700254ea900d081800083
:10112c00e181800018c0b30002002000031f2400de
:10113c0015fe07000000e000010035000044eb0044
:10114c000804e0000200320064eea8000100370041
:10115c0064eea900f08180000182800018c0b30009
:10116c0002002000031f240007fe07000000e0001f
:10117c00010035000044eb000804e0000b003a00cd
:10118c00108280002182800018c0b3000200200071
:10119c00031f2400fcfd07000000e00001003500e7
:1011ac000044eb000804e0000200320064cea8000a
:1011bc000100370064cea900607128007100200086
:1011cc00f103070000a02500212620006104070080
:1011dc0021ff37000000fa000ad0bf000080fb009e
:1011ec00cf80de00b200200003002000820f5000f0
:1011fc00838f580062003e00000601000b00370090
:10120c00140037001d003700270037002800370076
:10121c0032003700330037003d0037003e00370006
:10122c004800370049003700530037001a30ef00f0
:10123c001c30ef0012c0b3006000b8002902070098
:10124c000041eb006000b8002602070010c0b3009c
:10125c000af0b700d2808000e3808000803e20003e
:10126c0001002000800f5100818f5900470036008b
:10127c0020c0b3000af0b7004500370012c0b3001d
:10128c0000002000011a2400160207000041eb00a8
:10129c0000002000011a24001202070030c0b30025
:1012ac000af0b7003a0037003b000700380037005f
:1012bc0012c0b30000002000011a2400090207002c
:1012cc000041eb000000200001122c000502070079
:1012dc0050c0b3000af0b7002d0037002e000700f5
:1012ec002b00370012c0b3000000200001122c00ac
:1012fc00fc0107000041eb0000002000011a240053
:10130c00f801070070c0b3000af0b70020003700e6
:10131c00210007001e00370012c0b300000020009f
:10132c0001172400ef0107000041eb000000200032
:10133c0001172c00eb01070090c0b3000af0b700b6
:10134c0013003700140007001100370012c0b3005f
:10135c000000200001122c00e20107000041eb000c
:10136c000000200001122400de010700b0c0b30011
:10137c000af0b7000600370007000700040037002a
:10138c000a70ef00000000000100370000000000b0
:10139c000080fa00000006000200fa00881f7800a6
:1013ac000040eb00004f7800b0818000c1818000cc
:1013bc0018c0b30002002000031f240074fd0700b6
:1013cc000000e00001003c000044eb000804e000d9
:1013dc002f003200308280004182800018c0b300a0
:1013ec0002002000031a240069fd07000000e00041
:1013fc0001003c000044eb000804e0002400320033
:10140c00d0818000e181800018c0b3000200200070
:10141c00031f24005efd07000000e00001003c00fb
:10142c000044eb000804e000190032001082800038
:10143c002182800018c0b30002002000031a24008f
:10144c0053fd07000000e00001003c000044eb00ed
:10145c000804e0000e003200f08180000182800060
:10146c0018c0b30002002000031f240048fd070031
:10147c000000e00001003c000044eb000804e00028
:10148c00030032000040eb00004f78003f003700b3
:10149c00d0818000e181800018c0b30002002000e0
:1014ac00031f240038fd07000000e0000100340099
:1014bc000044eb000804e0000300320030c0b3002d
:1014cc00004f780031003700b0818000c18180006e
:1014dc0018c0b30002002000031f24002afd0700df
:1014ec000000e000010035000044eb000804e000bf
:1014fc000b003a00308280004182800018c0b3009b
:10150c0002002000031a24001ffd07000000e00069
:10151c00010035000044eb000804e0000300320039
:10152c0020c0b300004f78001800370010828000f4
:10153c002182800018c0b30002002000031f240089
:10154c0011fd07000000e000010035000044eb0035
:10155c000804e0000b003a00f0818000018280005a
:10156c0018c0b30002002000031a240006fd070077
:10157c000000e000010035000044eb000804e0002e
:10158c000200320010c0b300004f78001e407800fb
:10159c000004e00003003a0020c0b3000bf0b700d9
:1015ac00110037001e407800e24f500003003a0053
:1015bc0040c0b3000bf0b7000b0037001e407800a2
:1015cc00e14f500003003a0060c0b3000bf0b700cd
:1015dc00050037001e407800e34f500002003a002f
:1015ec00a0c0b3000bf0b7000bd0bf008080fb0095
:1015fc000ad0bf000080fb000000e900808f500083
:10160c00020032000bd0bf000af0b7004f04780084
:10161c000080fa00000006000000fa0013e1a900a7
:10162c0011e1a9001061a8001021a9008108800017
:10163c00f0fc2f0000806000800888000a21ef0079
:10164c000621ef00404c20007008880000402b0061
:10165c00600888002142800080ff2f00008060001d
:10166c000000a000204288000108a9002108a80061
:10167c0011e1a8000080fa00000006000400fa0046
:10168c00881f7800008fbe0021088000f0fc2f001e
:10169c0000806000200888001e0178009e019000e8
:1016ac000068290081c1240075fc070018c0b30034
:1016bc0002f02f00f3772400b5fc07000000e000d7
:1016cc0001003c000044eb000804e0005400320030
:1016dc0021088000f0fc2f00008060000040a0007a
:1016ec00200888001e0178009e01900000682900e7
:1016fc0081c1240062fc07000200200003102400ba
:10170c005ffc070018c0b30002f02f00f377240031
:10171c009ffc07000000e00001003c000044eb00cf
:10172c000804e0003200320021088000f0fc2f0099
:10173c00008060000050a000200888001e01780086
:10174c009e0190000068290081c124004cfc070018
:10175c00020020000328240049fc070018c0b30035
:10176c0002f02f00f377240089fc07000000e00052
:10177c0001003c000044eb000804e00010003200c3
:10178c002108800000032000010070002008880060
:10179c001e0178009e0190000068290081c1240080
:1017ac0037fc0700020020000338240034fc07003b
:1017bc0079fc070000007800100888002000370032
:1017cc001e0178009e0190000068290081c1240050
:1017dc002bfc0700020020000328240028fc070033
:1017ec006dfc07000000780010088800140037001a
:1017fc001e0178009e0190000068290081c1240020
:10180c001ffc070002002000031024001cfc070032
:10181c0061fc070000007800100888000800370001
:10182c001e0178009e0190000068290081c12400ef
:10183c0013fc070058fc0700000078001008880013
:10184c004f0478000080fa00000006000000fa0047
:10185c0000002800a137240088ff070005e1a9003b
:10186c000421a9000068a9002068a80005e1a800cf
:10187c000080fa00000006000400fa00881f7800bf
:10188c00008fbe00f1088000f0fc2f00008060008b
:10189c00f00888001e0178009e0190000068290065
:1018ac0081c12400f6fb070018c0b30002f02f0022
:1018bc00f377240036fc07000000e00001003c0038
:1018cc000044eb000804e00054003200f1088000f2
:1018dc00f0fc2f00008060000040a000f0088800a1
:1018ec001e0178009e0190000068290081c124002f
:1018fc00e3fb07000200200003102400e0fb0700bc
:10190c0018c0b30002f02f00f377240020fc07006e
:10191c000000e00001003c000044eb000804e00083
:10192c0032003200f1088000f0fc2f0000806000d3
:10193c000050a000f00888001e0178009e01900065
:10194c000068290081c12400cdfb070002002000a3
:10195c0003282400cafb070018c0b30002f02f00b4
:10196c00f37724000afc07000000e00001003c00b3
:10197c000044eb000804e00010003200f108800085
:10198c000003200001007000f00888001e017800a0
:10199c009e0190000068290081c12400b8fb07005b
:1019ac000200200003382400b5fb0700fafb0700f7
:1019bc000000780010088800200037001e01780015
:1019cc009e0190000068290081c12400acfb070037
:1019dc000200200003282400a9fb0700eefb0700ef
:1019ec000000780010088800140037001e017800f1
:1019fc009e0190000068290081c12400a0fb070013
:101a0c0002002000031024009dfb0700e2fb0700ee
:101a1c000000780010088800080037001e017800cc
:101a2c009e0190000068290081c1240094fb0700ee
:101a3c00d9fb070000007800100888004f047800dc
:101a4c000080fa00000006000000fa0000002000f0
:101a5c00a147240088ff07001fe1a9001e21a9004f
:101a6c000368a9002368a8001fe1a8000080fa0001
:101a7c00000006000000fa001160800080ff2f00bb
:101a8c00008060001060880000fa20002060880050
:101a9c0023aca800238ca80011618000f03f2f001c
:101aac000080600000a0a0001061880030002000c1
:101abc0020618800c3aca800c38ca800116680000c
:101acc00f03f2f000080600000a0a000106688008e
:101adc00300020002066880001eca8000080fa008d
:101aec00000006000600fa00008fbe004247980076
:101afc004e409000e14f500005003a001e01780066
:101b0c009e01900052818800638188000700370095
:101b1c004e4090000004e00004003a001e017800e2
:101b2c009e01900012818800238188000080fa00b9
:101b3c00000006000000fa00889fbe008a9fbe00cd
:101b4c0074818000858180005081800061818000db
:101b5c0018c0b3000001be000400be008afb0700e1
:101b6c000000e000010035000044eb000804e00038
:101b7c000f00320058818000698180007a818000da
:101b8c008b8180001ed0bf000080fb00cf80de0068
:101b9c00bdfb07000001be000a00be00dbfa070017
:101bac000801be00bc00070070818800818188009c
:101bbc00748180008581800050818000618180006b
:101bcc0018c0b3000001be000400be0070fb07008b
:101bdc000000e00001003c000044eb000804e000c1
:101bec000f00320058818000698180007a8180006a
:101bfc008b8180001ed0bf000080fb00cf80de00f8
:101c0c00a1fb07000001be000a00be00befa0700df
:101c1c000801be008800070070818800818188005f
:101c2c00708180008181800018c0b3006011b80001
:101c3c0055fb07000000e000010035000044eb00fc
:101c4c000804e00004003200c3cca90024eea80074
:101c5c00c3eca80003003700c3eca90024cea800f5
:101c6c00c3cca80070818000818180005c000700db
:101c7c000200200003222400dbfb070067fb0700a7
:101c8c000000780030668800348180004581800037
:101c9c00108180002181800018c0b3000001be00bb
:101cac000400be0038fb07000000e0000100350016
:101cbc000044eb000804e0000f00320018818000a3
:101ccc00298180003a8180004b8180001ed0bf00aa
:101cdc000080fb00cf80de006bfb07000001be0024
:101cec000a00be0089fa07000801be006a0007005e
:101cfc0030818800418188003481800045818000da
:101d0c00108180002181800018c0b3000001be004a
:101d1c000400be001efb07000000e00001003c00b8
:101d2c000044eb000804e0000f0032001881800032
:101d3c00298180003a8180004b8180001ed0bf0039
:101d4c000080fb00cf80de004ffb07000001be00cf
:101d5c000a00be006cfa07000801be00360007003e
:101d6c003081880041818800308180004181800071
:101d7c0018c0b3006011b80005fb07000000e000bc
:101d8c0001003c000044eb000804e00004003200b9
:101d9c0023cca90015eea80023eca8000300370003
:101dac0023eca90015cea80023cca800308180001c
:101dbc00418180000a000700020020000322240059
:101dcc0089fb070015fb07000000780030618800d4
:101ddc004f05be004f04be000080fa000000060054
:101dec000400fa00881f7800008fbe0018c0b300f2
:101dfc006011b8001e0078009e009000e4fa070005
:101e0c000000e00001003d000044eb000804e0008d
:101e1c00030032001e0078009e0090000300370083
:101e2c001e0078009e00900001f0a2004f04780084
:101e3c000080fa00000006000800fa00881f7800f5
:101e4c00008fbe00220798003307980018c0b3001b
:101e5c002e019000be0190001e0078009e009000a4
:101e6c00cbfa07000000e00001003c000044eb004e
:101e7c000804e000030032001e0078009e00900071
:101e8c00020037002e009000be0090004f04780036
:101e9c000080fa00000006000800fa00881f780095
:101eac00008fbe00220798003307980018c0b300bb
:101ebc002e019000be0190001e0078009e00900044
:101ecc00b1fa07000000e000010035000044eb000f
:101edc000804e000030032001e0078009e00900011
:101eec00020037002e009000be0090004f047800d6
:101efc000080fa00000006000c00fa00881f780031
:101f0c00008fbe0022079800330798004407980002
:101f1c005507980018c0b3004e019000de019000e8
:101f2c001e0078009e00900099fa07000000e00067
:101f3c0001003c000044eb000804e0000400320007
:101f4c004e019000de019000028fbe000e003700a3
:101f5c0018c0b3002e019000be0190001e00780046
:101f6c009e00900088fa07000000e0000100350098
:101f7c000044eb000804e000030032002e01900046
:101f8c00be019000028fbe001e0078009e009000e3
:101f9c004f0478000080fa00000006000400fa00ec
:101fac00008fbe00a2e82900a30524001e007800c3
:101fbc009e00900032fa07000200200043332400f8
:101fcc0009fb07000080fa00000006000400fa007c
:101fdc00008fbe00a2e82900a30524001e00780093
:101fec009e00900000fb07000200200043332400f9
:101ffc0023fa07000080fa00000006000000fa0037
:10200c0021e3a9002143a80001198000f0cf2f0083
:10201c0000806000001988002043a900011980008d
:10202c00000e2000010070000019880011198000ba
:10203c00f0ff210000806000101988002343a800e5
:10204c0011198000f0cf2f0000806000101988005b
:10205c001119800030f82f00008060000040a000b3
:10206c00101988002203a9002223a90025e3a90046
:10207c00f0c0b30024e3b70021198000f00f2e004c
:10208c008080600000f020000100700020198800a2
:10209c003303a9002e0ea8002f6ea8006f2ea800e7
:1020ac001e2ea8004feea8003063a80030c3a80075
:1020bc003163a80031e3a8002e03a8004119800069
:1020cc0000fc2f00008060004019880028e3a90064
:1020dc0001a8a90021a8a80021e3a8000080fa000b
:1020ec00000006000000fa002023a8000080fa007f
:1020fc00000006000000fa00e00021000080fa0059
:10210c00000006000000fa0016d0bf000080fa00a4
:10211c00000006000000fa001670ef000080fa00c4
:10212c00000006000000fa002002a9000111800046
:10213c0090ff2f00008060000011880020a2a900f1
:10214c002062a800500520004011880023a2a9009d
:10215c0023e2a9000188a9002188a900111180009f
:10216c00f0f32f00008060000060a00010118800c8
:10217c000168a9002168a90021e2a8002342a80057
:10218c000080fa00000006000600fa001007980014
:10219c00210798000040eb00004f78000040eb0056
:1021ac00004f78000e003700000000001111800075
:1021bc0000202000008060000000e000fbff3a00df
:1021cc001e009000104078000080fb002011880059
:1021dc001e0090000000e800100798001e4fe80059
:1021ec009e80fb002e009000808f5000eeff35008b
:1021fc000080fa00000006000000fa00f003200046
:10220c00303a8800213a8000f0f32f000080600003
:10221c00203a8800213a800000fe2f0000806000e8
:10222c000000a000203a8800120020008007200047
:10223c00a10920003374200080497800814978007e
:10224c0082497800103a8000000178000200a0005a
:10225c006004200071052000237420008049780060
:10226c00814978008249780000000000113a800012
:10227c00000027008080600000002100808f50004b
:10228c00faff3a0000000000113a80000002200022
:10229c00008060000000e000fbff32000080fa00cc
:1022ac00000006000000fa000e2eef001e2eef00bc
:1022bc002e2eef003e2eef004e2eef005e2eef0086
:1022cc006e2eef00214ea90060cea90060eea90091
:1022dc0011cea90011eea90020cea90020eea90074
:1022ec001134800000fc2f00008060000000a00072
:1022fc00103488002136800000f82f000080600028
:10230c008001b300203688000080fa00000006002f
:020000040000fa
:10231c00001000000c0000008000000018100000ed
:10232c000600000080000000201000002a000000c1
:10233c00800000001e10000002000000820000005f
:10234c00320000000c1000000c00000080000000a7
:04235c00000000007d
:020000040000fa
:10236000f03fb1000180b10006003500ee03090026
:1023700000000000403fb1000180b100fbff3d00c4
:102380001000b000203fb0000200350000800900be
:0823900000000000000006003f
:020000040000fa
:02000004000af0
:04afe000cfff00009f
:020000040000fa
:02000004000af0
:04afe400ffff00006b
:020000040000fa
:02000004000af0
:04afe8007fff0000e7
:020000040000fa
:02000004000af0
:04afec005fff000003
:020000040000fa
:02000004000af0
:04aff00038ff000026
:020000040000fa
:02000004000af0
:04aff400ffff00005b
:00000001FF
