:020000040000fa
:080000000002040000000000f2
:020000040000fa
:040008000e040000e2
:020000040000fa
:04000c000e040000de
:020000040000fa
:040010000e040000da
:020000040000fa
:040014000e040000d6
:020000040000fa
:040018000e040000d2
:020000040000fa
:04001c000e040000ce
:020000040000fa
:040020000e040000ca
:020000040000fa
:040024000e040000c6
:020000040000fa
:040028000e040000c2
:020000040000fa
:04002c000e040000be
:020000040000fa
:040030000e040000ba
:020000040000fa
:0400340002030000c3
:020000040000fa
:040038000e040000b2
:020000040000fa
:04003c000e040000ae
:020000040000fa
:040040000e040000aa
:020000040000fa
:040044000e040000a6
:020000040000fa
:04004800fa020000b8
:020000040000fa
:04004c000e0400009e
:020000040000fa
:040050000e0400009a
:020000040000fa
:04005400ca030000db
:020000040000fa
:04005800a003000001
:020000040000fa
:04005c00720300002b
:020000040000fa
:040060000e0400008a
:020000040000fa
:040064000e04000086
:020000040000fa
:040068000e04000082
:020000040000fa
:04006c000e0400007e
:020000040000fa
:040070000e0400007a
:020000040000fa
:040074000e04000076
:020000040000fa
:040078000e04000072
:020000040000fa
:04007c000e0400006e
:020000040000fa
:040080000e0400006a
:020000040000fa
:040084000e04000066
:020000040000fa
:040088000e04000062
:020000040000fa
:04008c000e0400005e
:020000040000fa
:040090000e0400005a
:020000040000fa
:04009400480300001d
:020000040000fa
:040098000e04000052
:020000040000fa
:04009c000e0400004e
:020000040000fa
:0400a0000e0400004a
:020000040000fa
:0400a4000e04000046
:020000040000fa
:0400a8000e04000042
:020000040000fa
:0400ac000e0400003e
:020000040000fa
:0400b0000e0400003a
:020000040000fa
:0400b4000e04000036
:020000040000fa
:0400b8000e04000032
:020000040000fa
:0400bc000e0400002e
:020000040000fa
:0400c0000e0400002a
:020000040000fa
:0400c4000e04000026
:020000040000fa
:0400c8000e04000022
:020000040000fa
:0400cc000e0400001e
:020000040000fa
:0400d0000e0400001a
:020000040000fa
:0400d4000e04000016
:020000040000fa
:0400d8000e04000012
:020000040000fa
:0400dc000e0400000e
:020000040000fa
:0400e0000e0400000a
:020000040000fa
:0400e4000e04000006
:020000040000fa
:0400e8000e04000002
:020000040000fa
:0400ec000e040000fe
:020000040000fa
:0400f0000e040000fa
:020000040000fa
:0400f4000e040000f6
:020000040000fa
:0400f8000e040000f2
:020000040000fa
:0400fc000e040000ee
:020000040000fa
:040100000e040000e9
:020000040000fa
:040104000e040000e5
:020000040000fa
:040108000e040000e1
:020000040000fa
:04010c000e040000dd
:020000040000fa
:040110000e040000d9
:020000040000fa
:040114000e040000d5
:020000040000fa
:040118000e040000d1
:020000040000fa
:04011c000e040000cd
:020000040000fa
:040120000e040000c9
:020000040000fa
:040124000e040000c5
:020000040000fa
:040128000e040000c1
:020000040000fa
:04012c000e040000bd
:020000040000fa
:040130000e040000b9
:020000040000fa
:040134000e040000b5
:020000040000fa
:040138000e040000b1
:020000040000fa
:04013c000e040000ad
:020000040000fa
:040140000e040000a9
:020000040000fa
:040144000e040000a5
:020000040000fa
:040148000e040000a1
:020000040000fa
:04014c000e0400009d
:020000040000fa
:040150000e04000099
:020000040000fa
:040154000e04000095
:020000040000fa
:040158000e04000091
:020000040000fa
:04015c000e0400008d
:020000040000fa
:040160000e04000089
:020000040000fa
:040164000e04000085
:020000040000fa
:040168000e04000081
:020000040000fa
:04016c000e0400007d
:020000040000fa
:040170000e04000079
:020000040000fa
:040174000e04000075
:020000040000fa
:040178000e04000071
:020000040000fa
:04017c000e0400006d
:020000040000fa
:040180000e04000069
:020000040000fa
:040184000e04000065
:020000040000fa
:040188000e04000061
:020000040000fa
:04018c000e0400005d
:020000040000fa
:040190000e04000059
:020000040000fa
:040194000e04000055
:020000040000fa
:040198000e04000051
:020000040000fa
:04019c000e0400004d
:020000040000fa
:0401a0000e04000049
:020000040000fa
:0401a4000e04000045
:020000040000fa
:0401a8000e04000041
:020000040000fa
:0401ac000e0400003d
:020000040000fa
:0401b0000e04000039
:020000040000fa
:0401b4000e04000035
:020000040000fa
:0401b8000e04000031
:020000040000fa
:0401bc000e0400002d
:020000040000fa
:0401c0000e04000029
:020000040000fa
:0401c4000e04000025
:020000040000fa
:0401c8000e04000021
:020000040000fa
:0401cc000e0400001d
:020000040000fa
:0401d0000e04000019
:020000040000fa
:0401d4000e04000015
:020000040000fa
:0401d8000e04000011
:020000040000fa
:0401dc000e0400000d
:020000040000fa
:0401e0000e04000009
:020000040000fa
:0401e4000e04000005
:020000040000fa
:0401e8000e04000001
:020000040000fa
:0401ec000e040000fd
:020000040000fa
:0401f0000e040000f9
:020000040000fa
:0401f4000e040000f5
:020000040000fa
:0401f8000e040000f1
:020000040000fa
:0401fc000e040000ed
:020000040000fa
:040200000e040000e8
:020000040000fa
:040204000e040000e4
:020000040000fa
:040208000e040000e0
:020000040000fa
:04020c000e040000dc
:020000040000fa
:040210000e040000d8
:020000040000fa
:040214000e040000d4
:020000040000fa
:040218000e040000d0
:020000040000fa
:04021c000e040000cc
:020000040000fa
:040220000e040000c8
:020000040000fa
:040224000e040000c4
:020000040000fa
:040228000e040000c0
:020000040000fa
:04022c000e040000bc
:020000040000fa
:040230000e040000b8
:020000040000fa
:040234000e040000b4
:020000040000fa
:040238000e040000b0
:020000040000fa
:04023c000e040000ac
:020000040000fa
:040240000e040000a8
:020000040000fa
:040244000e040000a4
:020000040000fa
:040248000e040000a0
:020000040000fa
:04024c000e0400009c
:020000040000fa
:040250000e04000098
:020000040000fa
:040254000e04000094
:020000040000fa
:040258000e04000090
:020000040000fa
:04025c000e0400008c
:020000040000fa
:040260000e04000088
:020000040000fa
:040264000e04000084
:020000040000fa
:040268000e04000080
:020000040000fa
:04026c000e0400007c
:020000040000fa
:040270000e04000078
:020000040000fa
:040274000e04000074
:020000040000fa
:040278000e04000070
:020000040000fa
:04027c000e0400006c
:020000040000fa
:040280000e04000068
:020000040000fa
:10040000af2221000eff2c000e018800000000002a
:10041000000020000000e000020032000001200087
:100420002002880014000700fe0007000000e00022
:1004300003003a00a0b121000100200002003700b3
:100440000000200001002000810f70000100320038
:100450000f000700000020000000e0000200320052
:1004600000000200000000001c0902000000000063
:100470000040da000000fe00200020000000e00044
:1004800002003200100020009001880000000600e9
:10049000a1028800800478000000eb001f003700f4
:1004a000e284440054a0b4009905ba00e2844400f8
:1004b00054a0b4009906ba00e284440054a0b400e9
:1004c0000006eb00476fde00fd07b200ae018800ba
:1004d000636ce10003003a000ad801000000eb0061
:1004e0000e003700606ce10008003a00004deb00a0
:1004f0000a05e800020039003420ec000af0a000f0
:100500008b05e900f9ff3e00040037006168e10057
:10051000010032000086eb000b00070019c7ba008b
:100520000e04e0001905ba0003003a000a00e000da
:10053000dbff3a0000000600fe07b200ae028800b2
:100540008a047800f5ff37000cd0a300e20f4d00bd
:100550001c00390089027800354dba000a05e80010
:10056000020039003420ec000af0a0008b05e900fd
:100570000f003200254dba000a05e80002003900dc
:100580003420ec000af0a0008b05e90008003200de
:100590000c00e0000600320015cdba000a05e800a4
:1005a000020039003420ec000af0a0008b05e900bd
:1005b0008984e80054a0b4000b00e000e2ff3a0098
:1005c000000006009902ba00055d78008b05e9007d
:1005d000f7ff3200c82ade00055d78008b05e900d0
:1005e000f3ff32000c00e000f1ff320019ddba0029
:1005f000eeff37000000fa000108a9000080fa00b1
:10060000004006003600f800809fbe00829fbe00ba
:10061000849fbe00869fbe000200fa000068a90009
:10062000cc0807001d0b07005e0507000082800054
:10063000000f7800910120001e00780081017800f1
:10064000110009000300d80001f0a7008100ea00b2
:100650008100e900cf08de00814078001e017800ab
:100660000200e800008288000104e000010032007e
:100670002e0607000080fa004f03be004f02be00a6
:100680004f01be004f00be003600f90000400600da
:100690003600f800809fbe00829fbe00849fbe008f
:1006a000869fbe000000fa00e9030700e081800099
:1006b000f181800061004000e0804800e081880016
:1006c000f18188000368a9000080fa004f03be0092
:1006d0004f02be004f01be004f00be003600f900c1
:1006e00000400600809fbe000000fa0001a8a9009b
:1006f0000118800000032100010878001118800013
:10070000000321001100980021188000000321003f
:10071000210098003118800000032100310098006a
:1007200041188000000321004100980010c0b30070
:1007300038f0b7000080fa004f00be00004006000d
:100740003600f800809fbe00829fbe00849fbe00de
:10075000869fbe000000fa000188a9006182800027
:1007600050828000808f500002003200690a07002a
:10077000010037004e70ef000080fa004f03be000a
:100780004f02be004f01be004f00be003600f90010
:10079000004006003600f800809fbe00829fbe0029
:1007a000849fbe00869fbe000000fa000168a90079
:1007b00010118000640060000000e00001003200c1
:1007c0002242a90010118000620060000000e000d9
:1007d000060032002222a9000500370030118000f7
:1007e00000407800bd0a070001003700000000004b
:1007f00010118000610060000000e000f7ff3a0087
:100800000080fa004f03be004f02be004f01be0041
:100810004f00be003600f900004006000040da003c
:100820000000fe000000050003f0a200889fbe004b
:100830008a9fbe008c1f78006e010700750133008f
:100840006450e1004f0032006420e10052003200a9
:1008500003826c0007003b000905d0000306d000ae
:10086000820f54000c065d000200390002003200c5
:1008700089017800030678008582550004003d0058
:100880000003fd008103fd008502ea008b85420024
:10089000840f720002003b0060001000e08018002e
:1008a0006011b8000005eb007a28e1000a00390069
:1008b00006007800c75ddd00f707b200878075008d
:1008c0002d003700828171000a0178006105600007
:1008d0008180d1000080d3008502e900f9ff3b0050
:1008e000060440008784480002003b0060041400b6
:1008f000e0841c000988a300070032008a8171008f
:1009000082817100610164008904d1000884d300f0
:100910008b05e800170037000978a30013003a00a0
:100920000b00e000130034008b05e90008044400cc
:1009300089844c000a4474000978a3000d003a0031
:100940000b00e000070034008b05e90008044400b8
:1009500089844c0001003a000b0020000978a300b4
:10096000f7ff32000001eb000200370082817100c6
:100970000a017800e40007000cf0a70001f0a000d5
:100980002d0137006420e10002003a00838f6c00e3
:100990002d0133000801be000200be002601370011
:1009a0000081eb005f013700889fbe008a9fbe0078
:1009b0008c1f78000f0107001601330003866c00be
:1009c0006450e1002e0032006420e1003300320068
:1009d0006150e1002f0032006120e100310032005f
:1009e00085855500eb07b0000900200008042000b1
:1009f000050037000804440089844c000a003100d7
:100a00000603430087834b000001530081815b0094
:100a1000f8ff33000203be000800a00008044400f1
:100a200089844c00f6ff3900c639dd00830173006c
:100a300001003200130020008904d1000884d30093
:100a40000998a300050032000800a7000300a000d9
:100a50008904d1000884d3008b05e8008904d10003
:100a60000884d3000001eb000281d200a600070039
:100a700001f0a1000cf0a70001f0a000ee0037008b
:100a80006420e100f00032000801be000200be0058
:100a9000f7ff37006120e100eb0032006000b80092
:100aa000f3ff37000000200001f82700f0ff3700b7
:100ab0001400200086013700f4ff2f008401370066
:100ac0000001be00b60007000470a70003f0a100fb
:100ad0006509b100160032000d0035006828e100fc
:100ae00006003500f0ff2f00f1ff27000300e000b3
:100af00013003b000100280000000500000040003a
:100b0000818048008502e900fcff3a0008003700b8
:100b1000f88f420002003c008000eb00000005005e
:100b20008100d1000080d3008502e800fcff3a007c
:100b30000300e00002003b0060001000e0801800ad
:100b4000000006000001be00950007000470a70029
:100b500003f0a10003f8a30013003a006509b100f7
:100b600010003200090035006928e100020035005c
:100b700001002800000005000000400081804800be
:100b80008502e900fcff3a0000000600f88f4200f1
:100b9000050035008100d1000080d3008502e80007
:100ba000fcff3a00000006008000eb00000005009a
:100bb0004f89de0082017800600137006011b800c3
:100bc0006e0137000400200000003700889fbe003f
:100bd0008a9fbe008c1f78004f26dd00850007002d
:100be0008c0033006120e100430032006250e100dc
:100bf00041003e003e0039006420e1003c0032002c
:100c0000058255000f003b000402e80038003a005e
:100c1000800f5300818f5b00350034000800be0058
:100c200003f0a10001f0a60003f0a0000cf0a70063
:100c3000fefe0700800037000603430087834b0059
:100c40000c4646000005530081855b00020033001e
:100c50000a03be000c00a0000402e900f6ff3b00fe
:100c6000850578000602430087824b0004003a00a5
:100c70006000b80009f0a70001f0a0006e00370086
:100c80000002520081825a000704e0000400330091
:100c90000603430087834b008b05e900faff37000a
:100ca000090578000604be000203be006011b8000a
:100cb00015000700e00f5200e08f5a0007003500d2
:100cc00002003c000c08a300040032000601be0034
:100cd00003f0a0000cf0a700d4fe07000a8568000e
:100ce00001f0a1000af0a70001f0a00052003700b7
:100cf0000800be0050003700100220000cf0a600d3
:100d0000b0828800500037008100200061805500cb
:100d10000b003d000b00200061fe2f000100e100f0
:100d20001d00340082817100610164008904d100da
:100d30000884d3000000e800faff3a0071002000a8
:100d400061006400030070000200600009003200ce
:100d500061044400e0844c000988a50005003200cd
:100d60008b05e8006808e10002003a008904d10020
:100d70000884d300f20f20000258e10005003d0076
:100d8000c75ddd00f907b2008980750008007800b2
:100d9000000006000bf827008b007800000005001b
:100da000c70ade00f107b200f50fb20008003200fa
:100db000e1cf4200020032000170a00024000500d3
:100dc000810f700001003200040805004400050096
:100dd000810f700002003a00140005008502e9004e
:100de0000000400081c04800fcff3b000170a000f3
:100df000240005000004be00e9ff07000003be0058
:100e00000405be000200be00e5ff0700844f750028
:100e1000000006000200be006450e100050036003c
:100e20006420e100020036000968a30001003a00d6
:100e30000800be000160a0004f0678004f05be000c
:100e40004f04be0000000600f0ff2f00f1ff270056
:100e5000f9ff3700889fbe008a9fbe008c1f780074
:100e6000e4ff0700ebff330003866c006450e100f1
:100e7000240032006420e100270032006150e100cc
:100e8000220032006120e100210032008b85420007
:100e9000eb07b1000134b800003ab8000804420082
:100ea00089844a00013ab8000030b80088804000c8
:100eb00009014a000400330000004000818048001e
:100ec000020149008b05e900c909dd0083017000ba
:100ed0000100320013002000c814de004814dd00b9
:100ee0004709de001200b200c808de000884700066
:100ef00085ff070001f0a1000cf0a70001f0a000a1
:100f0000cdff37006120e100cfff32000801be00b5
:100f10000200be00f7ff37006150e100fcff3a001d
:100f2000c9ff3700889fbe008a9fbe008c9fbe000d
:100f3000820578000004be0099ff07000800be008b
:100f40006420e1000700390002003a00f1ff2700a9
:100f5000f0ff2f000160a00012022000b282880082
:100f6000550037006120e10003003a000b00a700a4
:100f700001f823005000370001f0a1000200210019
:100f800093642400cafe07000800be000400350078
:100f9000b2fd2000930c24000aff07000004be00ed
:100fa0000005eb000b00a6004f0dde0001f0a100d4
:100fb0000004be0032982f0023ea2300a5ff07009b
:100fc0000001eb0003f023000b00a70003f823004f
:100fd00016fe0700bafe07000000a7000a00a200e4
:100fe000f3fe07000b00e0000300320002002000c7
:100ff00003f023000cfe070001f0a2000006be0073
:10100000020020009304240092ff07000801be00a4
:1010100006fe0700809fbe000c00be0022a22a0030
:10102000d3a723008bff07004f01be00fffd070081
:101030000004be0001f0a10002002000039823007c
:101040009bfe07000800be00190035000001be002d
:1010500080ff07000006be00b2c52900e36223003e
:101060007cff070022222b00f3942b00effd0700ea
:101070000c01be0077ff0700e273280083c0230045
:10108000eafd07000c01be0072ff070042aa2a0019
:10109000a3e22b00e5fd07000c01be006dff070079
:1010a0000801be006bff07000801be00dffd07005e
:1010b0000a00a70001f0a2004f06be004f05be00c7
:1010c0004f04be00000006000001eb0095ff370052
:1010d000889fbe008a9fbe00841f780045ff0700de
:1010e0004f00780011003300f0ff2f00838f6c0059
:1010f00006003b00040565000a00a7000800370051
:1011000009f0a6001000200008003700820f5400ec
:10111000838f5c00030039001000200001003e00b6
:101120000000200009f0a7000000ea004f05be0003
:101130004f04be000000e00000000600881f780099
:10114000030478000300e00007003d006000100089
:10115000e080180060011900e081190002003b00e6
:1011600001f02d00030037000400070008f0a7007d
:1011700001f0a0004f04780000000600889fbe0028
:101180008a9fbe0000827000040271000482710018
:10119000260032000004be000200be006011b8004c
:1011a0006b092000950220000182cf000a0039005f
:1011b0000541b1000082cf00070039000541b100b0
:1011c0000982cf00040039000541b1000882cf0038
:1011d000010039000541b100054252001200320001
:1011e0000a003b0082817100610164008100d1002e
:1011f0000080d3008984d3000884d3008b05e800e5
:101200000442e800f7ff3a000700370008044400f2
:1012100089844c0000004800818048008b05e9006b
:101220000442e900f9ff3a00b7fe07004f05be008f
:081230004f04be00000006009f
:020000040000fa
:101238000c00fa00889fbe00d10807009d0807002f
:101248000805070086050700790407008f050700d1
:10125800d6070700630807003e020700460207009a
:1012680014080700e14f5000eb003a00150807008a
:101278000c080700100798001e0090001000780066
:10128800008188001e0090000080e80010007800af
:10129800108188001e009000640040001000780053
:1012a800208188001e009000660040001000780031
:1012b800308188001e00900068004000100078000f
:1012c800408188001e009000100078008000eb002c
:1012d80038fe07003233230033052400dbfe070005
:1012e8000200200003582400adfd0700d2cc2c00da
:1012f800c3042400d5fe0700200798003107980092
:101308002e019000be0190000000200081202400e2
:10131800a3fd070002002000030a240040fd070087
:10132800708f8800818f88001e0090000080e80080
:10133800100078008000eb001efe07003233230007
:1013480033052400c1fe07000200200003582400d2
:1013580093fd0700d2cc2c00c3042400bbfe070079
:1013680020079800310798002e019000be019000d8
:10137800000020008120240089fd070002002000d1
:10138800030a240026fd0700f08f880001908800da
:101398001e00900064004000100078008000eb0000
:1013a80004fe07003233230033052400a7fe07009c
:1013b800020020000358240079fd0700d2cc2c003d
:1013c800c3042400a1fe07002007980031079800f5
:1013d8002e019000be019000000020008120240012
:1013e8006ffd070002002000030a24000cfd07001f
:1013f800908f8800a18f88001e0090006600400032
:10140800100078008000eb00eafd0700323323006b
:10141800330524008dfe0700020020000358240035
:101428005ffd0700d2cc2c00c304240087fe070010
:1014380020079800310798002e019000be01900007
:10144800000020008120240055fd07000200200034
:10145800030a2400f2fc0700b08f8800c18f8800bf
:101468001e00900068004000100078008000eb002b
:10147800d0fd0700323323003305240073fe070034
:10148800020020000358240045fd0700d2cc2c00a0
:10149800c30424006dfe0700200798003107980058
:1014a8002e019000be019000000020008120240041
:1014b8003bfd070002002000030a2400d8fc0700b7
:1014c800d08f8800e18f8800708f8000818f800026
:1014d80018c0b30002002000031f240072fd07009b
:1014e8000000e000010035000044eb000804e000c3
:1014f8000b003a00f08f80000190800018c0b30004
:1015080002002000031f240067fd07000000e00020
:10151800010035000044eb000804e000020032003e
:10152800254ea80001003700254ea900908f8000a5
:10153800a18f800018c0b30002002000031f240000
:1015480059fd07000000e000010035000044eb00f1
:101558000804e0000200320064eea8000100370031
:1015680064eea900b08f8000c18f800018c0b3005e
:1015780002002000031f24004bfd07000000e000cc
:10158800010035000044eb000804e0000b003a00bd
:10159800d08f8000e18f800018c0b30002002000c7
:1015a800031f240040fd07000000e0000100350093
:1015b8000044eb000804e0000200320064cea800fa
:1015c8000100370064cea900b08f8000c18f800071
:1015d8005afd070080447800908f8000a18f80001a
:1015e80056fd070000447800708f8000818f8000ce
:1015f80052fd070000407800194f9800284f9800c6
:10160800304f980069004700000178003100200041
:10161800000320009e0207000000eb00000f780086
:10162800050037003e070700004f98000e4890005d
:10163800f00207001e0fe800530707009e0f500036
:10164800f8ff3c0006ff37000000fa002ad0bf0070
:101658000080fb00cf80de00f200200003002000a5
:10166800820f5000838f580088003e00000601005a
:101678000f00370018003700210037002b00370013
:101688002f003700390037003d003700470037008a
:101698005e003700680037006c00370076003700be
:1016a8007a003700790037004500370051003700cd
:1016b8003c30ef003e30ef0012c0b3006000b800cd
:1016c8008e0407000041eb006000b8008b0407009f
:1016d80010c0b3002af0b700e2818000f3818000d7
:1016e800803e200001002000800f5100818f5900aa
:1016f8006900360020c0b3002af0b7007300370035
:1017080012c0b30000002000811824007b040700e9
:101718000041eb0000002000811824007704070036
:1017280030c0b3002af0b700680037002bd0bf00e4
:101738000004e0005a00320066000700630037002a
:1017480012c0b30000002000011724006b0407003a
:101758000041eb000000200001172c00670407007f
:1017680050c0b3002af0b700580037002bd0bf0094
:101778000004e0004c003200560007005300370018
:1017880012c0b3000000200001172c005b04070002
:101798000041eb0000002000011724005704070057
:1017a80070c0b3002af0b700480037002bd0bf0044
:1017b8000004e0003e003200460007004300370006
:1017c8003c30ef003e30ef0012c0b30000002000b4
:1017d80001172c00490407000041eb00000020001d
:1017e80001172c0045040700f0c0b3002af0b70029
:1017f800360037002bd0bf000004e0002e00320076
:10180800a0c0b3002af0b7003000370012c0b30000
:101818000000200001172400380407000041eb00f5
:101828000000200001172c003404070090c0b3000a
:101838002af0b700250037002bd0bf000004e000d5
:101848001f003200230007002000370012c0b30039
:101858000000200001172c00280407000041eb00bd
:10186800000020000117240024040700b0c0b300c2
:101878002af0b700150037002bd0bf000004e000a5
:101888001100320013000700100037002a70ef0023
:10189800000000000d003700000000000b003700ba
:1018a80000000000090037000000000007003700b2
:1018b80000000000050037000000000003003700aa
:1018c8000000000001003700000000000080fa005e
:1018d800000006000200fa00881f78000040eb00b4
:1018e800004f7800708f8000818f800018c0b3008f
:1018f80002002000031f24006dfc07000000e00028
:1019080001003c000044eb000804e0002f00320016
:10191800f08f80000190800018c0b3000200200002
:10192800031a240062fc07000000e00001003c00ec
:101938000044eb000804e00024003200908f80008f
:10194800a18f800018c0b30002002000031f2400ec
:1019580057fc07000000e00001003c000044eb00d9
:101968000804e00019003200d08f8000e18f800069
:1019780018c0b30002002000031a24004cfc070022
:101988000000e00001003c000044eb000804e00017
:101998000e003200b08f8000c18f800018c0b300e5
:1019a80002002000031f240041fc07000000e000a3
:1019b80001003c000044eb000804e0000300320092
:1019c8000040eb00004f78003f003700908f800008
:1019d800a18f800018c0b30002002000031f24005c
:1019e80031fc07000000e000010034000044eb0077
:1019f8000804e0000300320030c0b300004f780054
:101a080031003700708f8000818f800018c0b300cc
:101a180002002000031f240023fc07000000e00050
:101a2800010035000044eb000804e0000b003a0018
:101a3800f08f80000190800018c0b30002002000e1
:101a4800031a240018fc07000000e000010035001c
:101a58000044eb000804e0000300320020c0b3009b
:101a6800004f780018003700d08f8000e18f800089
:101a780018c0b30002002000031f24000afc07005e
:101a88000000e000010035000044eb000804e0001d
:101a98000b003a00b08f8000c18f800018c0b300df
:101aa80002002000031a2400fffb07000000e000ea
:101ab800010035000044eb000804e0000200320099
:101ac80010c0b300004f78001e4078000004e0000a
:101ad80003003a0020c0b3002cf0b7001100370013
:101ae8001e407800e24f500003003a0040c0b300a7
:101af8002cf0b7000b0037001e407800e14f500073
:101b080003003a0060c0b3002cf0b70005003700ae
:101b18001e407800e34f500002003a00a0c0b30016
:101b28002cf0b7002cd0bf008080fb002ad0bf006b
:101b38000080fb000000e900808f500002003200a6
:101b48002cd0bf002af0b7004f0478000080fa00bc
:101b5800000006000000fa00c301a8000080eb00a6
:101b6800e00e88000080eb00f00e8800c1e1a800bc
:101b78000080fa00000006000000fa00c305a80073
:101b88000080eb00e02e88000080eb00f02e88003b
:101b9800c1e5a8000080fa00000006001000fa0065
:101ba800889fbe00008080001180800040808800ef
:101bb800518088002080800031808000608088000b
:101bc80071808800300e80008000eb00008fbe001e
:101bd800500e80008000eb00c000dd0000002000f7
:101be8001e0f40005e974800302e80008000eb00fa
:101bf8002007980031079800502e80008000eb00e5
:101c0800c000dd00000020002e019000be01900001
:101c180002004000838048002007980031079800a0
:101c28001e0078009e009000dffb0700d25d2b00ad
:101c380043c8230085fc07000080880011808800c5
:101c48002e009000be009000d7fb0700d25d2b004d
:101c580043c82b007dfc0700208088003180880065
:101c680004808000158080004080800051808000c2
:101c78000001be000400be00e9fa07008080880069
:101c880091808800248080003580800060808000fa
:101c9800718080000001be000400be00e0fa070069
:101ca800a0808800b18088008480800095808000b2
:101cb800a0808000b18080000001be000400be004a
:101cc800d7fa0700a2992900c338240034fb07007b
:101cd800c0808800d180880080808000918080004a
:101ce80002002000a337240058fc0700d090880089
:101cf800e1908800a0808000b18080000200200070
:101d0800a337240051fc0700f09088000191880057
:101d1800d4908000e5908000f090800001918000d0
:101d28000001be000400be00befa07000200200049
:101d3800030024001afb07001091880021918800f5
:101d4800c0808000d180800002002000a3372400da
:101d58003efc070030918800419188001090800077
:101d680021908000709088008190880030908000d9
:101d78004190800090908800a19088005090800049
:101d880061908000b0908800c1908800d490800055
:101d9800e5908000f0908000019180000001be0075
:101da8000400be009ffa0700020020000300240080
:101db800fbfa070002002000a337240023fc0700d9
:101dc8004007980051079800d4908000e590800063
:101dd800f0908000019180000001be000400be0068
:101de8008ffa0700a2992900c3382400ecfa0700eb
:101df80002002000a337240014fc070060079800a5
:101e08007107980078908000899080006e0090009b
:101e1800fe009000e0fa07004e019000de019000fd
:101e28000afc07000001be000800be007dfa07009a
:101e3800109088002190880098908000a9908000d8
:101e48006e009000fe0090009dfc07004e0190007f
:101e5800de019000fdfb07000001be000800be0087
:101e680070fa07003090880041908800b090800098
:101e7800c19080006e019000fe01900069fa070091
:101e88005090880061908800509080006190800098
:101e980018c0b300b2fd20009304240004fb07001f
:101ea8000000e00001003c000044eb000804e000f2
:101eb800070032005090800061908000b2fd200041
:101ec800930c240056fa070050908800619088000f
:101ed800509080006190800018c0b300b2fd2000cf
:101ee80093042c00f0fa07000000e0000100350020
:101ef8000044eb000804e000070032005090800026
:101f080061908000b2fd2000930c240045fa070080
:101f180050908800619088004f04be000080fa004d
:101f2800000006001800fa00e0818000f1818000be
:101f38000001be008000eb000e00780004040700da
:101f480010908000219080000001be004100200018
:101f58000e007800e5030700309080004190800073
:101f68000001be00810020000e007800df0307009a
:101f780050908000619080000001be00c1002000e8
:101f88000e007800d903070010918000219180008d
:101f98000001be00010120000e007800d3030700f5
:101fa80030918000419180000001be004101200075
:101fb8000e007800cd0307000e0178008101200093
:101fc80010062000320007000080fa00000006001a
:101fd8000a00fa0020079800310798004207980085
:101fe8000040eb00004f7800e0cfb3001e4f6800c0
:101ff8002e0090004880de00804078001e40780067
:1020080000c06800004f78002e00900080407800e3
:102018001e40780000c06800004f78003e00900025
:102028004880de00804078001e40780000c06800cc
:10203800004f78003e009000804078001e407800f5
:1020480000c06800004f78000000eb0010079800ff
:10205800080037001e009000ce009000008040006d
:10206800104078001e4f68001e0090000000e80035
:10207800100798009e0090003e009000808f50004e
:10208800f4ff35001e4078000080fa0000000600ca
:102098000e00fa00889fbe0040079800510798007c
:1020a800620798000f0478000f0078008004780019
:1020b8005e009000660040008000e900210798005b
:1020c8000000e8000000e8000000d10080004000a7
:1020d8000f007800818747000000e8000000d10069
:1020e80000004000300798000000eb00000f780067
:1020f8003e0090001e004000e1cfb3000148780088
:102108001e0fe8004e0090004880de0080407800f6
:102118003e0090001e004000014878001e0fe800b5
:102128004e009000804078003e0090001e00400065
:10213800014878001e0fe8005e0090004880de002d
:10214800804078003e0090001e0040000148780062
:102158001e0fe8005e009000804078003e0090006e
:102168001e004000014878001e0fe8000000eb0048
:10217800100798000b0037001e009000ee0090003a
:1021880000804000904078003e0090001e00400013
:10219800014878001e0fe8001e0090000000e800cb
:1021a800100798009e0090005e009000808f5000fd
:1021b800f1ff35006e019000de0090004e009000a7
:1021c80083ff0700be0090009e8040008048780092
:1021d8001e0fe8003e0090009e0078008f03070065
:1021e80089077800880778004f04be000080fa004d
:1021f800000006000400fa00204798004082800092
:10220800e30f500023003200e30f500005003e00aa
:10221800e10f500010003200e10f500015003e00a1
:1022280007003700e50f500036003200e50f500078
:102238001f003900e60f5000400032005000370000
:102248002e409000e24f400050003a00100020005d
:1022580040828800500037002e4090000080fb002c
:102268004800dd001082880020002000408288009d
:10227800490037002e4090008080fb0010828000cb
:1022880000804000108288003000200040828800d2
:10229800410037002e4090000080fb004800dd0020
:1022a8002082880040002000408288003a003700e1
:1022b8002e4090008080fb0020828000008040003b
:1022c80020828800208280000000e00003003a009d
:1022d80060002000408288002f00370021828000a3
:1022e800f0072000808f5000020034004830ef00d3
:1022f800290037004630ef00500020004082880057
:102308002500370030828000811521008080400040
:102318002e419000824878000000e8003082880052
:102328003182800020828000808f500019003a009e
:10233800600020004082880017003700218280005a
:10234800108280008215210021ff0700004f7800cd
:102358002e4090009e40780080cf500006003a0042
:102368002082800080407800108280000040780041
:10237800821521000a0007004830ef0006003700e8
:102388004830ef00000000000300370000000000a4
:1023980001003700000000000080fa00000006007d
:1023a8000400fa00004f78001147980012079800bf
:1023b8001e80fb0011052000810f50000400320030
:1023c80021052000810f5000050032000800370069
:1023d8001e00900010407800070007000400370036
:1023e8001e009000104078000a000700000000005e
:1023f8000080fa00000006000200fa00004f780092
:102408001e417800a1022100824878000080fa006d
:10241800000006000200fa00004f78001e41780014
:10242800b1022100824878000080fa00000006000e
:102438000000fa0013e1a90011e1a9001061a80049
:102448001021a90081088000f0fc2f0000806000a6
:10245800800888000a21ef000621ef00404c200088
:102468007008880000402b00600888002142800026
:1024780080ff2f00008060000000a000204288003c
:102488000108a9002108a80011e1a8000080fa00ad
:10249800000006000400fa00881f7800008fbe00c4
:1024a80021088000f0fc2f000080600020088800d0
:1024b8001e0178009e0190000068290081c1240057
:1024c80037f9070018c0b30002f02f00f377240093
:1024d80077f907000000e00001003c000044eb0031
:1024e8000804e0005400320021088000f0fc2f00ae
:1024f800008060000040a000200888001e017800cd
:102508009e0190000068290081c1240024f9070079
:10251800020020000310240021f9070018c0b300ae
:1025280002f02f00f377240061f907000000e000b3
:1025380001003c000044eb000804e00032003200d7
:1025480021088000f0fc2f00008060000050a000ef
:10255800200888001e0178009e019000006829006c
:1025680081c124000ef9070002002000032824007e
:102578000bf9070018c0b30002f02f00f37724000e
:102588004bf907000000e00001003c000044eb00ac
:102598000804e00010003200210880000003200039
:1025a80001007000200888001e0178009e0190003c
:1025b8000068290081c12400f9f807000200200002
:1025c80003382400f6f807003bf9070000007800fc
:1025d80010088800200037001e0178009e01900036
:1025e8000068290081c12400edf8070002002000de
:1025f80003282400eaf807002ff9070000007800f4
:1026080010088800140037001e0178009e01900011
:102618000068290081c12400e1f8070002002000b9
:1026280003102400def8070023f9070000007800f3
:1026380010088800080037001e0178009e019000ed
:102648000068290081c12400d5f807001af907009d
:1026580000007800100888004f0478000080fa0015
:10266800000006000000fa0000002000a137240046
:1026780088ff070005e1a9000421a9000068a90056
:102688002068a80005e1a8000080fa000000060004
:102698000400fa00881f7800008fbe00f10880004f
:1026a800f0fc2f0000806000f00888001e01780010
:1026b8009e0190000068290081c12400b8f8070035
:1026c80018c0b30002f02f00f3772400f8f80700d1
:1026d8000000e00001003c000044eb000804e000ba
:1026e80054003200f1088000f0fc2f0000806000e8
:1026f8000040a000f00888001e0178009e019000ac
:102708000068290081c12400a5f807000200200004
:1027180003102400a2f8070018c0b30002f02f002d
:10272800f3772400e2f807000000e00001003c0015
:102738000044eb000804e00032003200f108800099
:10274800f0fc2f00008060000050a000f008880016
:102758001e0178009e0190000068290081c12400b4
:102768008ff8070002002000032824008cf80700d7
:1027780018c0b30002f02f00f3772400ccf807004c
:102788000000e00001003c000044eb000804e00009
:1027980010003200f10880000003200001007000e2
:1027a800f00888001e0178009e019000006829004a
:1027b80081c124007af807000200200003382400b1
:1027c80077f80700bcf807000000780010088800b8
:1027d800200037001e0178009e0190000068290043
:1027e80081c124006ef8070002002000032824009d
:1027f8006bf80700b0f807000000780010088800a0
:10280800140037001e0178009e019000006829001e
:1028180081c1240062f80700020020000310240090
:102828005ff80700a4f80700000078001008880087
:10283800080037001e0178009e01900000682900fa
:1028480081c1240056f807009bf8070000007800b3
:10285800100888004f0478000080fa000000060085
:102868000000fa0000002000a147240088ff0700ac
:102878001fe1a9001e21a9000368a9002368a80078
:102888001fe1a8000080fa00000006000000fa001e
:102898001160800080ff2f000080600010608800b9
:1028a80000fa20002060880023aca800238ca80030
:1028b80011618000f03f2f000080600000a0a000a0
:1028c800106188003000200020618800c3aca80097
:1028d800c38ca80011668000f03f2f0000806000c4
:1028e80000a0a00010668800300020002066880044
:1028f80001eca8000080fa00000006000600fa00bb
:10290800008fbe00424798004e409000e14f5000b3
:1029180005003a001e0178009e019000128f880081
:10292800238f8800070037004e4090000004e00025
:1029380004003a001e0178009e019000d28e8800a3
:10294800e38e88000080fa00000006000000fa000c
:10295800889fbe008a9fbe00348f8000458f80000c
:10296800108f8000218f800018c0b3000001be00c6
:102978000400be004cf807000000e000010035002c
:102988000044eb000804e0000f003200188f8000bc
:10299800298f80003a8f80004b8f800054d0bf0071
:1029a8000080fb00cf80de007ff807000001be003a
:1029b8000a00be009bf707000801be00bc00070024
:1029c800308f8800418f8800348f8000458f8000c9
:1029d800108f8000218f800018c0b3000001be0056
:1029e8000400be0032f807000000e00001003c00cf
:1029f8000044eb000804e0000f003200188f80004c
:102a0800298f80003a8f80004b8f800054d0bf0000
:102a18000080fb00cf80de0063f807000001be00e5
:102a28000a00be007ef707000801be008800070004
:102a3800308f8800418f8800308f8000418f800060
:102a480018c0b3006011b80017f807000000e000d4
:102a5800010035000044eb000804e00004003200e7
:102a6800c3cca90024eea800c3eca80003003700db
:102a7800c3eca90024cea800c3cca800308f8000e6
:102a8800418f80005c000700020020000322240020
:102a9800eef8070029f80700000078003066880083
:102aa800f48e8000058f8000d08e8000e18e80003b
:102ab80018c0b3000001be000400be00faf707000a
:102ac8000000e000010035000044eb000804e000cd
:102ad8000f003200d88e8000e98e8000fa8e8000c8
:102ae8000b8f800054d0bf000080fb00cf80de0039
:102af8002df807000001be000a00be0049f70700d4
:102b08000801be006a000700f08e8800018f880067
:102b1800f48e8000058f8000d08e8000e18e8000ca
:102b280018c0b3000001be000400be00e0f70700b3
:102b38000000e00001003c000044eb000804e00055
:102b48000f003200d88e8000e98e8000fa8e800057
:102b58000b8f800054d0bf000080fb00cf80de00c8
:102b680011f807000001be000a00be002cf707009c
:102b78000801be0036000700f08e8800018f88002b
:102b8800f08e8000018f800018c0b3006011b8007b
:102b9800c7f707000000e00001003c000044eb001c
:102ba8000804e0000400320023cca90015eea800b8
:102bb80023eca8000300370023eca90015cea800d9
:102bc80023cca800f08e8000018f80000a00070047
:102bd80002002000032224009cf80700d7f7070012
:102be80000007800306188004f05be004f04be0029
:102bf8000080fa00000006000400fa00881f780030
:102c0800008fbe0018c0b3006011b8001e00780025
:102c18009e009000a6f707000000e00001003d00bc
:102c28000044eb000804e000030032001e007800b6
:102c38009e009000030037001e0078009e00900060
:102c480001f0a2004f0478000080fa00000006009e
:102c58000800fa00881f7800008fbe00220798003d
:102c68003307980018c0b3002e019000be019000f1
:102c78001e0078009e0090008df707000000e0001d
:102c880001003c000044eb000804e00003003200af
:102c98001e0078009e009000020037002e00900071
:102ca800be0090004f0478000080fa000000060083
:102cb8000800fa00881f7800008fbe0022079800dd
:102cc8003307980018c0b3002e019000be01900091
:102cd8001e0078009e00900073f707000000e000d7
:102ce800010035000044eb000804e0000300320056
:102cf8001e0078009e009000020037002e00900011
:102d0800be0090004f0478000080fa000000060022
:102d18000c00fa00881f7800008fbe002207980078
:102d280033079800440798005507980018c0b30067
:102d38004e019000de0190001e0078009e00900079
:102d48005bf707000000e00001003c000044eb00d6
:102d58000804e000040032004e019000de019000fb
:102d6800028fbe000e00370018c0b3002e0190007d
:102d7800be0190001e0078009e0090004af70700f0
:102d88000000e000010035000044eb000804e0000a
:102d9800030032002e019000be019000028fbe0099
:102da8001e0078009e0090004f0478000080fa0012
:102db800000006000400fa00008fbe00a2e8290007
:102dc800a30524001e0078009e009000f4f607007a
:102dd80002002000433324001cf807000080fa009a
:102de800000006000400fa00008fbe00a2e82900d7
:102df800a30524001e0078009e00900013f8070029
:102e08000200200043332400e5f607000080fa00a2
:102e1800000006000800fa00200798003107980013
:102e2800b2fd2000930424002e009000be00900004
:102e38007bf60700b2fd2000930c24005ff7070023
:102e4800b2fd20009304240076f60700008fbe0030
:102e5800b2fd2000930424001e0078009e0090001c
:102e680070f60700b2fd2000930c240053f707000a
:102e7800b2fd20009304240069f607000080fa00e0
:102e8800000006000a00fa00300798004107980081
:102e9800be0090004e009000008f40001e00780099
:102ea80010017800900190001207980023079800fd
:102eb8001e009000ae0090000080fa00000006009e
:102ec8000600fa0010079800210798009e0090005d
:102ed8002e009000008f40001e00780090009000a7
:102ee800100078000080fa00000006000c00fa00cc
:102ef8002007980031079800420798005307980068
:102f080068004700100798000000eb00000f7800e9
:102f18000a0037003e0090001e004000ae009000fe
:102f2800008040009e0078001e0190008100410052
:102f380091407800014878001e0fe8001e007800d4
:102f4800e30f5000f3ff34000080fa000000060091
:102f58000c00fa00200798003107980042079800f3
:102f68005307980068004700100798000000eb001e
:102f7800000f78000b0037003e0090001e00400054
:102f8800ae00900000804000320020009e005100fa
:102f98001e019000810041009140780001487800ae
:102fa8001e0fe8001e007800e30f5000f2ff340007
:102fb8000080fa00000006000c00fa0020079800c4
:102fc80031079800420798005307980068004700a7
:102fd800100798000000eb00000f78000a00370087
:102fe8003e0090001e004000ae00900000804000af
:102ff8009e0078001e0190008100410091407800f9
:10300800014878001e0fe8001e007800e70f500006
:10301800f3ff34000080fa00000006000600fa0002
:1030280010079800210798000040eb00004f780037
:1030380043000700ae009000810f500011003400db
:103048000040eb00004f7800060037001e80fb00b0
:103058009e00900000804000104078000b000700a0
:103068001e4fe8009e80fb002e009000808f5000cd
:10307800f6ff35002e0007000004e00001003a00ca
:10308800220007000080fa00000006000200fa0093
:10309800004f7800508280008105210000804000a8
:1030a8001e487800508280000000e80050828800a6
:1030b80051828000f0072000808f5000010034000a
:1030c8004a30ef000080fa00000006000200fa0013
:1030d800608280008105210000804000104f780048
:1030e800608280000000e8006082880061828000c1
:1030f800f0072000808f5000010034004c30ef00b2
:103108001e4078000080fa00000006000200fa0065
:1031180010c0b3004ef0b700ecff0700004f780076
:103128001e80fb00201188000080fa0000000600c5
:103138000000fa004ed0bf000080fa000000060030
:103148000000fa0004000700010820000080500079
:103158000080fa00000006000200fa005182800098
:1031680060828000808f500004003500518280000a
:1031780060828000008f5000090037006182800063
:1031880050828000808f50000500350051828000f9
:10319800608280000080500001082000010f40007c
:1031a8001e0078000080fa00000006000000fa0007
:1031b80021e3a9002143a80001198000f0cf2f00c6
:1031c80000806000001988002043a90001198000d0
:1031d800000e2000010070000019880011198000fd
:1031e800f0ff210000806000101988002343a80028
:1031f80011198000f0cf2f0000806000101988009e
:103208001119800030f82f00008060000040a000f5
:10321800101988002203a9002223a90025e3a90088
:10322800f0c0b30024e3b70021198000f00f2e008e
:103238008080600000f020000100700020198800e4
:103248003303a9002e0ea8002f6ea8006f2ea80029
:103258001e2ea8004feea8003063a80030c3a800b7
:103268003163a80031e3a8002e03a80041198000ab
:1032780000fc2f00008060004019880028e3a900a6
:1032880001a8a90021a8a80021e3a8000080fa004d
:10329800000006000000fa002023a8000080fa00c1
:1032a800000006000000fa00000321000080fa0078
:1032b800000006000000fa0038d0bf000080fa00c5
:1032c800000006000000fa003870ef000080fa00e5
:1032d800000006000200fa00004f78003b000700db
:1032e8000000e0000c00340080828000810d210085
:1032f800008040001e487800808280000000e800be
:103308008082880081828000f0072000808f500032
:10331800010034005030ef000080fa000000060081
:103328000200fa0090828000810d21000080400098
:10333800104f7800908280000000e800908288009a
:1033480091828000f0072000808f50000100340037
:103358005230ef001e4078000080fa00000006009e
:103368000000fa008182800090828000808f5000e7
:103378000200320010c0b300010037000040eb002b
:103388000080fa00000006000200fa008182800036
:1033980090828000808f5000040035008182800078
:1033a80090828000008f50000500370081828000e5
:1033b800908280000080500001082000010f40002a
:1033c8001e0078000080fa00000006000000fa00e5
:1033d800edff070001082000008050000080fa007f
:1033e800000006000000fa002002a9000111800078
:1033f80090ff2f00008060000011880020a2a90023
:103408002062a800500520004011880023a2a900ce
:1034180023e2a9000188a9002188a80011118000d1
:10342800f0f32f0000806000101188000168a900e7
:103438002168a80021e2a8002342a8000080fa0021
:10344800000006000600fa001007980021079800ff
:103458000040eb00004f78000040eb00004f780080
:103468000e0037000000000011118000002020002d
:10347800008060000000e000fbff3a001e009000a2
:10348800104078000080fb00201188001e0090008a
:103498000000e800100798001e4fe8009e80fb001f
:1034a8002e009000808f5000eeff35000080fa005b
:1034b800000006000000fa000e2eef001e2eef009e
:1034c8002e2eef003e2eef004e2eef005e2eef0068
:1034d8006e2eef00214ea90060cea90060eea90073
:1034e80011cea90011eea90020cea90020eea90056
:1034f8001134800000fc2f00008060000000a00054
:10350800103488000136800000f82f0080806000a9
:103518001006200001007000003688000136800087
:10352800f00f280080806000000026000100700075
:1035380000368800e135800000f82f0080806000a8
:103548006004200001007000e0358800e13580004b
:10355800f00f2800808060000050240001007000f7
:10356800e03588002136800000f82f0000806000d8
:103578008001b300203688000080fa0000000600b1
:103588000000fa00f0032000303a8800213a800059
:10359800f0f32f0000806000203a8800213a800074
:1035a80000fe2f00008060000000a000203a880084
:1035b8001200200080072000a10920003374200099
:1035c800804978008149780082497800103a800063
:1035d800000178000200a0006004200071052000ae
:1035e8002374200080497800814978008249780056
:1035f80000000000113a8000000027008080600071
:1036080000002100808f5000faff3a0000000000ff
:10361800113a800000022000008060000000e000f5
:0c362800fbff32000080fa0000000600ea
:020000040000fa
:10363400201000000e000000800000003a1000007e
:103644000800000080000000d811000052000000b3
:1036540080000000541000000200000082000000fe
:10366400320000002e1000000c000000800000005a
:103674005810000080000000800000004a10000084
:103684000600000080000000d81000008000000048
:1036940080000000501000000400000080000000c2
:1036a400581100008000000080000000421000005b
:1036b400080000008000000000100000200000004e
:1036c400800000005610000002000000800000008e
:0436d40000000000f2
:020000040000fa
:02000004000af0
:04afe000cfff00009f
:020000040000fa
:02000004000af0
:04afe400ffff00006b
:020000040000fa
:02000004000af0
:04afe8007fff0000e7
:020000040000fa
:02000004000af0
:04afec005fff000003
:020000040000fa
:02000004000af0
:04aff00038ff000026
:020000040000fa
:02000004000af0
:04aff400ffff00005b
:00000001FF
